{
	"contracts/TP1BlockChain.sol": {
		"VotingSystem": {
			"abi": [
				{
					"inputs": [],
					"stateMutability": "nonpayable",
					"type": "constructor"
				},
				{
					"inputs": [
						{
							"internalType": "string",
							"name": "_name",
							"type": "string"
						}
					],
					"name": "addCandidate",
					"outputs": [],
					"stateMutability": "nonpayable",
					"type": "function"
				},
				{
					"inputs": [
						{
							"internalType": "uint256",
							"name": "",
							"type": "uint256"
						}
					],
					"name": "candidates",
					"outputs": [
						{
							"internalType": "uint256",
							"name": "id",
							"type": "uint256"
						},
						{
							"internalType": "string",
							"name": "name",
							"type": "string"
						},
						{
							"internalType": "uint256",
							"name": "voteCount",
							"type": "uint256"
						}
					],
					"stateMutability": "view",
					"type": "function"
				},
				{
					"inputs": [
						{
							"internalType": "uint256",
							"name": "_candidateId",
							"type": "uint256"
						}
					],
					"name": "getCandidate",
					"outputs": [
						{
							"components": [
								{
									"internalType": "uint256",
									"name": "id",
									"type": "uint256"
								},
								{
									"internalType": "string",
									"name": "name",
									"type": "string"
								},
								{
									"internalType": "uint256",
									"name": "voteCount",
									"type": "uint256"
								}
							],
							"internalType": "struct VotingSystem.Candidate",
							"name": "",
							"type": "tuple"
						}
					],
					"stateMutability": "view",
					"type": "function"
				},
				{
					"inputs": [],
					"name": "owner",
					"outputs": [
						{
							"internalType": "address",
							"name": "",
							"type": "address"
						}
					],
					"stateMutability": "view",
					"type": "function"
				},
				{
					"inputs": [],
					"name": "totalCandidates",
					"outputs": [
						{
							"internalType": "uint256",
							"name": "",
							"type": "uint256"
						}
					],
					"stateMutability": "view",
					"type": "function"
				},
				{
					"inputs": [
						{
							"internalType": "uint256",
							"name": "_candidateId",
							"type": "uint256"
						}
					],
					"name": "vote",
					"outputs": [],
					"stateMutability": "nonpayable",
					"type": "function"
				},
				{
					"inputs": [
						{
							"internalType": "address",
							"name": "",
							"type": "address"
						}
					],
					"name": "voters",
					"outputs": [
						{
							"internalType": "bool",
							"name": "",
							"type": "bool"
						}
					],
					"stateMutability": "view",
					"type": "function"
				}
			],
			"devdoc": {
				"kind": "dev",
				"methods": {},
				"version": 1
			},
			"evm": {
				"assembly": "    /* \"contracts/TP1BlockChain.sol\":57:1341  contract VotingSystem {... */\n  mstore(0x40, 0x80)\n    /* \"contracts/TP1BlockChain.sol\":453:502  constructor() {... */\n  callvalue\n  dup1\n  iszero\n  tag_1\n  jumpi\n  0x00\n  dup1\n  revert\ntag_1:\n  pop\n    /* \"contracts/TP1BlockChain.sol\":485:495  msg.sender */\n  caller\n    /* \"contracts/TP1BlockChain.sol\":477:482  owner */\n  0x00\n  dup1\n    /* \"contracts/TP1BlockChain.sol\":477:495  owner = msg.sender */\n  0x0100\n  exp\n  dup2\n  sload\n  dup2\n  0xffffffffffffffffffffffffffffffffffffffff\n  mul\n  not\n  and\n  swap1\n  dup4\n  0xffffffffffffffffffffffffffffffffffffffff\n  and\n  mul\n  or\n  swap1\n  sstore\n  pop\n    /* \"contracts/TP1BlockChain.sol\":57:1341  contract VotingSystem {... */\n  dataSize(sub_0)\n  dup1\n  dataOffset(sub_0)\n  0x00\n  codecopy\n  0x00\n  return\nstop\n\nsub_0: assembly {\n        /* \"contracts/TP1BlockChain.sol\":57:1341  contract VotingSystem {... */\n      mstore(0x40, 0x80)\n      callvalue\n      dup1\n      iszero\n      tag_1\n      jumpi\n      0x00\n      dup1\n      revert\n    tag_1:\n      pop\n      jumpi(tag_2, lt(calldatasize, 0x04))\n      shr(0xe0, calldataload(0x00))\n      dup1\n      0x3866965c\n      gt\n      tag_10\n      jumpi\n      dup1\n      0x3866965c\n      eq\n      tag_6\n      jumpi\n      dup1\n      0x462e91ec\n      eq\n      tag_7\n      jumpi\n      dup1\n      0x8da5cb5b\n      eq\n      tag_8\n      jumpi\n      dup1\n      0xa3ec138d\n      eq\n      tag_9\n      jumpi\n      jump(tag_2)\n    tag_10:\n      dup1\n      0x0121b93f\n      eq\n      tag_3\n      jumpi\n      dup1\n      0x3477ee2e\n      eq\n      tag_4\n      jumpi\n      dup1\n      0x35b8e820\n      eq\n      tag_5\n      jumpi\n    tag_2:\n      0x00\n      dup1\n      revert\n        /* \"contracts/TP1BlockChain.sol\":741:1020  function vote(uint _candidateId) public {... */\n    tag_3:\n      tag_11\n      0x04\n      dup1\n      calldatasize\n      sub\n      dup2\n      add\n      swap1\n      tag_12\n      swap2\n      swap1\n      tag_13\n      jump\t// in\n    tag_12:\n      tag_14\n      jump\t// in\n    tag_11:\n      stop\n        /* \"contracts/TP1BlockChain.sol\":204:248  mapping(uint => Candidate) public candidates */\n    tag_4:\n      tag_15\n      0x04\n      dup1\n      calldatasize\n      sub\n      dup2\n      add\n      swap1\n      tag_16\n      swap2\n      swap1\n      tag_13\n      jump\t// in\n    tag_16:\n      tag_17\n      jump\t// in\n    tag_15:\n      mload(0x40)\n      tag_18\n      swap4\n      swap3\n      swap2\n      swap1\n      tag_19\n      jump\t// in\n    tag_18:\n      mload(0x40)\n      dup1\n      swap2\n      sub\n      swap1\n      return\n        /* \"contracts/TP1BlockChain.sol\":1026:1236  function getCandidate(uint _candidateId) public view returns (Candidate memory) {... */\n    tag_5:\n      tag_20\n      0x04\n      dup1\n      calldatasize\n      sub\n      dup2\n      add\n      swap1\n      tag_21\n      swap2\n      swap1\n      tag_13\n      jump\t// in\n    tag_21:\n      tag_22\n      jump\t// in\n    tag_20:\n      mload(0x40)\n      tag_23\n      swap2\n      swap1\n      tag_24\n      jump\t// in\n    tag_23:\n      mload(0x40)\n      dup1\n      swap2\n      sub\n      swap1\n      return\n        /* \"contracts/TP1BlockChain.sol\":1242:1339  function totalCandidates() public view returns (uint) {... */\n    tag_6:\n      tag_25\n      tag_26\n      jump\t// in\n    tag_25:\n      mload(0x40)\n      tag_27\n      swap2\n      swap1\n      tag_28\n      jump\t// in\n    tag_27:\n      mload(0x40)\n      dup1\n      swap2\n      sub\n      swap1\n      return\n        /* \"contracts/TP1BlockChain.sol\":508:735  function addCandidate(string memory _name) public onlyOwner {... */\n    tag_7:\n      tag_29\n      0x04\n      dup1\n      calldatasize\n      sub\n      dup2\n      add\n      swap1\n      tag_30\n      swap2\n      swap1\n      tag_31\n      jump\t// in\n    tag_30:\n      tag_32\n      jump\t// in\n    tag_29:\n      stop\n        /* \"contracts/TP1BlockChain.sol\":178:198  address public owner */\n    tag_8:\n      tag_33\n      tag_34\n      jump\t// in\n    tag_33:\n      mload(0x40)\n      tag_35\n      swap2\n      swap1\n      tag_36\n      jump\t// in\n    tag_35:\n      mload(0x40)\n      dup1\n      swap2\n      sub\n      swap1\n      return\n        /* \"contracts/TP1BlockChain.sol\":287:325  mapping(address => bool) public voters */\n    tag_9:\n      tag_37\n      0x04\n      dup1\n      calldatasize\n      sub\n      dup2\n      add\n      swap1\n      tag_38\n      swap2\n      swap1\n      tag_39\n      jump\t// in\n    tag_38:\n      tag_40\n      jump\t// in\n    tag_37:\n      mload(0x40)\n      tag_41\n      swap2\n      swap1\n      tag_42\n      jump\t// in\n    tag_41:\n      mload(0x40)\n      dup1\n      swap2\n      sub\n      swap1\n      return\n        /* \"contracts/TP1BlockChain.sol\":741:1020  function vote(uint _candidateId) public {... */\n    tag_14:\n        /* \"contracts/TP1BlockChain.sol\":800:806  voters */\n      0x03\n        /* \"contracts/TP1BlockChain.sol\":800:818  voters[msg.sender] */\n      0x00\n        /* \"contracts/TP1BlockChain.sol\":807:817  msg.sender */\n      caller\n        /* \"contracts/TP1BlockChain.sol\":800:818  voters[msg.sender] */\n      0xffffffffffffffffffffffffffffffffffffffff\n      and\n      0xffffffffffffffffffffffffffffffffffffffff\n      and\n      dup2\n      mstore\n      0x20\n      add\n      swap1\n      dup2\n      mstore\n      0x20\n      add\n      0x00\n      keccak256\n      0x00\n      swap1\n      sload\n      swap1\n      0x0100\n      exp\n      swap1\n      div\n      0xff\n      and\n        /* \"contracts/TP1BlockChain.sol\":799:818  !voters[msg.sender] */\n      iszero\n        /* \"contracts/TP1BlockChain.sol\":791:846  require(!voters[msg.sender], \"You have already voted.\") */\n      tag_44\n      jumpi\n      mload(0x40)\n      0x08c379a000000000000000000000000000000000000000000000000000000000\n      dup2\n      mstore\n      0x04\n      add\n      tag_45\n      swap1\n      tag_46\n      jump\t// in\n    tag_45:\n      mload(0x40)\n      dup1\n      swap2\n      sub\n      swap1\n      revert\n    tag_44:\n        /* \"contracts/TP1BlockChain.sol\":879:891  candidateIds */\n      0x02\n        /* \"contracts/TP1BlockChain.sol\":879:898  candidateIds.length */\n      dup1\n      sload\n      swap1\n      pop\n        /* \"contracts/TP1BlockChain.sol\":864:876  _candidateId */\n      dup2\n        /* \"contracts/TP1BlockChain.sol\":864:898  _candidateId < candidateIds.length */\n      lt\n        /* \"contracts/TP1BlockChain.sol\":856:928  require(_candidateId < candidateIds.length, \"Not a valid candidate ID.\") */\n      tag_47\n      jumpi\n      mload(0x40)\n      0x08c379a000000000000000000000000000000000000000000000000000000000\n      dup2\n      mstore\n      0x04\n      add\n      tag_48\n      swap1\n      tag_49\n      jump\t// in\n    tag_48:\n      mload(0x40)\n      dup1\n      swap2\n      sub\n      swap1\n      revert\n    tag_47:\n        /* \"contracts/TP1BlockChain.sol\":960:964  true */\n      0x01\n        /* \"contracts/TP1BlockChain.sol\":939:945  voters */\n      0x03\n        /* \"contracts/TP1BlockChain.sol\":939:957  voters[msg.sender] */\n      0x00\n        /* \"contracts/TP1BlockChain.sol\":946:956  msg.sender */\n      caller\n        /* \"contracts/TP1BlockChain.sol\":939:957  voters[msg.sender] */\n      0xffffffffffffffffffffffffffffffffffffffff\n      and\n      0xffffffffffffffffffffffffffffffffffffffff\n      and\n      dup2\n      mstore\n      0x20\n      add\n      swap1\n      dup2\n      mstore\n      0x20\n      add\n      0x00\n      keccak256\n      0x00\n        /* \"contracts/TP1BlockChain.sol\":939:964  voters[msg.sender] = true */\n      0x0100\n      exp\n      dup2\n      sload\n      dup2\n      0xff\n      mul\n      not\n      and\n      swap1\n      dup4\n      iszero\n      iszero\n      mul\n      or\n      swap1\n      sstore\n      pop\n        /* \"contracts/TP1BlockChain.sol\":1012:1013  1 */\n      0x01\n        /* \"contracts/TP1BlockChain.sol\":974:984  candidates */\n      dup1\n        /* \"contracts/TP1BlockChain.sol\":974:998  candidates[_candidateId] */\n      0x00\n        /* \"contracts/TP1BlockChain.sol\":985:997  _candidateId */\n      dup4\n        /* \"contracts/TP1BlockChain.sol\":974:998  candidates[_candidateId] */\n      dup2\n      mstore\n      0x20\n      add\n      swap1\n      dup2\n      mstore\n      0x20\n      add\n      0x00\n      keccak256\n        /* \"contracts/TP1BlockChain.sol\":974:1008  candidates[_candidateId].voteCount */\n      0x02\n      add\n      0x00\n        /* \"contracts/TP1BlockChain.sol\":974:1013  candidates[_candidateId].voteCount += 1 */\n      dup3\n      dup3\n      sload\n      tag_50\n      swap2\n      swap1\n      tag_51\n      jump\t// in\n    tag_50:\n      swap3\n      pop\n      pop\n      dup2\n      swap1\n      sstore\n      pop\n        /* \"contracts/TP1BlockChain.sol\":741:1020  function vote(uint _candidateId) public {... */\n      pop\n      jump\t// out\n        /* \"contracts/TP1BlockChain.sol\":204:248  mapping(uint => Candidate) public candidates */\n    tag_17:\n      mstore(0x20, 0x01)\n      dup1\n      0x00\n      mstore\n      keccak256(0x00, 0x40)\n      0x00\n      swap2\n      pop\n      swap1\n      pop\n      dup1\n      0x00\n      add\n      sload\n      swap1\n      dup1\n      0x01\n      add\n      dup1\n      sload\n      tag_52\n      swap1\n      tag_53\n      jump\t// in\n    tag_52:\n      dup1\n      0x1f\n      add\n      0x20\n      dup1\n      swap2\n      div\n      mul\n      0x20\n      add\n      mload(0x40)\n      swap1\n      dup2\n      add\n      0x40\n      mstore\n      dup1\n      swap3\n      swap2\n      swap1\n      dup2\n      dup2\n      mstore\n      0x20\n      add\n      dup3\n      dup1\n      sload\n      tag_54\n      swap1\n      tag_53\n      jump\t// in\n    tag_54:\n      dup1\n      iszero\n      tag_55\n      jumpi\n      dup1\n      0x1f\n      lt\n      tag_56\n      jumpi\n      0x0100\n      dup1\n      dup4\n      sload\n      div\n      mul\n      dup4\n      mstore\n      swap2\n      0x20\n      add\n      swap2\n      jump(tag_55)\n    tag_56:\n      dup3\n      add\n      swap2\n      swap1\n      0x00\n      mstore\n      keccak256(0x00, 0x20)\n      swap1\n    tag_57:\n      dup2\n      sload\n      dup2\n      mstore\n      swap1\n      0x01\n      add\n      swap1\n      0x20\n      add\n      dup1\n      dup4\n      gt\n      tag_57\n      jumpi\n      dup3\n      swap1\n      sub\n      0x1f\n      and\n      dup3\n      add\n      swap2\n    tag_55:\n      pop\n      pop\n      pop\n      pop\n      pop\n      swap1\n      dup1\n      0x02\n      add\n      sload\n      swap1\n      pop\n      dup4\n      jump\t// out\n        /* \"contracts/TP1BlockChain.sol\":1026:1236  function getCandidate(uint _candidateId) public view returns (Candidate memory) {... */\n    tag_22:\n        /* \"contracts/TP1BlockChain.sol\":1088:1104  Candidate memory */\n      tag_58\n      tag_59\n      jump\t// in\n    tag_58:\n        /* \"contracts/TP1BlockChain.sol\":1139:1151  candidateIds */\n      0x02\n        /* \"contracts/TP1BlockChain.sol\":1139:1158  candidateIds.length */\n      dup1\n      sload\n      swap1\n      pop\n        /* \"contracts/TP1BlockChain.sol\":1124:1136  _candidateId */\n      dup3\n        /* \"contracts/TP1BlockChain.sol\":1124:1158  _candidateId < candidateIds.length */\n      lt\n        /* \"contracts/TP1BlockChain.sol\":1116:1188  require(_candidateId < candidateIds.length, \"Not a valid candidate ID.\") */\n      tag_61\n      jumpi\n      mload(0x40)\n      0x08c379a000000000000000000000000000000000000000000000000000000000\n      dup2\n      mstore\n      0x04\n      add\n      tag_62\n      swap1\n      tag_49\n      jump\t// in\n    tag_62:\n      mload(0x40)\n      dup1\n      swap2\n      sub\n      swap1\n      revert\n    tag_61:\n        /* \"contracts/TP1BlockChain.sol\":1205:1215  candidates */\n      0x01\n        /* \"contracts/TP1BlockChain.sol\":1205:1229  candidates[_candidateId] */\n      0x00\n        /* \"contracts/TP1BlockChain.sol\":1216:1228  _candidateId */\n      dup4\n        /* \"contracts/TP1BlockChain.sol\":1205:1229  candidates[_candidateId] */\n      dup2\n      mstore\n      0x20\n      add\n      swap1\n      dup2\n      mstore\n      0x20\n      add\n      0x00\n      keccak256\n        /* \"contracts/TP1BlockChain.sol\":1198:1229  return candidates[_candidateId] */\n      mload(0x40)\n      dup1\n      0x60\n      add\n      0x40\n      mstore\n      swap1\n      dup2\n      0x00\n      dup3\n      add\n      sload\n      dup2\n      mstore\n      0x20\n      add\n      0x01\n      dup3\n      add\n      dup1\n      sload\n      tag_63\n      swap1\n      tag_53\n      jump\t// in\n    tag_63:\n      dup1\n      0x1f\n      add\n      0x20\n      dup1\n      swap2\n      div\n      mul\n      0x20\n      add\n      mload(0x40)\n      swap1\n      dup2\n      add\n      0x40\n      mstore\n      dup1\n      swap3\n      swap2\n      swap1\n      dup2\n      dup2\n      mstore\n      0x20\n      add\n      dup3\n      dup1\n      sload\n      tag_64\n      swap1\n      tag_53\n      jump\t// in\n    tag_64:\n      dup1\n      iszero\n      tag_65\n      jumpi\n      dup1\n      0x1f\n      lt\n      tag_66\n      jumpi\n      0x0100\n      dup1\n      dup4\n      sload\n      div\n      mul\n      dup4\n      mstore\n      swap2\n      0x20\n      add\n      swap2\n      jump(tag_65)\n    tag_66:\n      dup3\n      add\n      swap2\n      swap1\n      0x00\n      mstore\n      keccak256(0x00, 0x20)\n      swap1\n    tag_67:\n      dup2\n      sload\n      dup2\n      mstore\n      swap1\n      0x01\n      add\n      swap1\n      0x20\n      add\n      dup1\n      dup4\n      gt\n      tag_67\n      jumpi\n      dup3\n      swap1\n      sub\n      0x1f\n      and\n      dup3\n      add\n      swap2\n    tag_65:\n      pop\n      pop\n      pop\n      pop\n      pop\n      dup2\n      mstore\n      0x20\n      add\n      0x02\n      dup3\n      add\n      sload\n      dup2\n      mstore\n      pop\n      pop\n      swap1\n      pop\n        /* \"contracts/TP1BlockChain.sol\":1026:1236  function getCandidate(uint _candidateId) public view returns (Candidate memory) {... */\n      swap2\n      swap1\n      pop\n      jump\t// out\n        /* \"contracts/TP1BlockChain.sol\":1242:1339  function totalCandidates() public view returns (uint) {... */\n    tag_26:\n        /* \"contracts/TP1BlockChain.sol\":1290:1294  uint */\n      0x00\n        /* \"contracts/TP1BlockChain.sol\":1313:1325  candidateIds */\n      0x02\n        /* \"contracts/TP1BlockChain.sol\":1313:1332  candidateIds.length */\n      dup1\n      sload\n      swap1\n      pop\n        /* \"contracts/TP1BlockChain.sol\":1306:1332  return candidateIds.length */\n      swap1\n      pop\n        /* \"contracts/TP1BlockChain.sol\":1242:1339  function totalCandidates() public view returns (uint) {... */\n      swap1\n      jump\t// out\n        /* \"contracts/TP1BlockChain.sol\":508:735  function addCandidate(string memory _name) public onlyOwner {... */\n    tag_32:\n        /* \"contracts/TP1BlockChain.sol\":385:390  owner */\n      0x00\n      dup1\n      sload\n      swap1\n      0x0100\n      exp\n      swap1\n      div\n      0xffffffffffffffffffffffffffffffffffffffff\n      and\n        /* \"contracts/TP1BlockChain.sol\":371:390  msg.sender == owner */\n      0xffffffffffffffffffffffffffffffffffffffff\n      and\n        /* \"contracts/TP1BlockChain.sol\":371:381  msg.sender */\n      caller\n        /* \"contracts/TP1BlockChain.sol\":371:390  msg.sender == owner */\n      0xffffffffffffffffffffffffffffffffffffffff\n      and\n      eq\n        /* \"contracts/TP1BlockChain.sol\":363:429  require(msg.sender == owner, \"Only owner can call this function.\") */\n      tag_70\n      jumpi\n      mload(0x40)\n      0x08c379a000000000000000000000000000000000000000000000000000000000\n      dup2\n      mstore\n      0x04\n      add\n      tag_71\n      swap1\n      tag_72\n      jump\t// in\n    tag_71:\n      mload(0x40)\n      dup1\n      swap2\n      sub\n      swap1\n      revert\n    tag_70:\n        /* \"contracts/TP1BlockChain.sol\":578:595  uint _candidateId */\n      0x00\n        /* \"contracts/TP1BlockChain.sol\":598:610  candidateIds */\n      0x02\n        /* \"contracts/TP1BlockChain.sol\":598:617  candidateIds.length */\n      dup1\n      sload\n      swap1\n      pop\n        /* \"contracts/TP1BlockChain.sol\":578:617  uint _candidateId = candidateIds.length */\n      swap1\n      pop\n        /* \"contracts/TP1BlockChain.sol\":654:687  Candidate(_candidateId, _name, 0) */\n      mload(0x40)\n      dup1\n      0x60\n      add\n      0x40\n      mstore\n      dup1\n        /* \"contracts/TP1BlockChain.sol\":664:676  _candidateId */\n      dup3\n        /* \"contracts/TP1BlockChain.sol\":654:687  Candidate(_candidateId, _name, 0) */\n      dup2\n      mstore\n      0x20\n      add\n        /* \"contracts/TP1BlockChain.sol\":678:683  _name */\n      dup4\n        /* \"contracts/TP1BlockChain.sol\":654:687  Candidate(_candidateId, _name, 0) */\n      dup2\n      mstore\n      0x20\n      add\n        /* \"contracts/TP1BlockChain.sol\":685:686  0 */\n      0x00\n        /* \"contracts/TP1BlockChain.sol\":654:687  Candidate(_candidateId, _name, 0) */\n      dup2\n      mstore\n      pop\n        /* \"contracts/TP1BlockChain.sol\":627:637  candidates */\n      0x01\n        /* \"contracts/TP1BlockChain.sol\":627:651  candidates[_candidateId] */\n      0x00\n        /* \"contracts/TP1BlockChain.sol\":638:650  _candidateId */\n      dup4\n        /* \"contracts/TP1BlockChain.sol\":627:651  candidates[_candidateId] */\n      dup2\n      mstore\n      0x20\n      add\n      swap1\n      dup2\n      mstore\n      0x20\n      add\n      0x00\n      keccak256\n        /* \"contracts/TP1BlockChain.sol\":627:687  candidates[_candidateId] = Candidate(_candidateId, _name, 0) */\n      0x00\n      dup3\n      add\n      mload\n      dup2\n      0x00\n      add\n      sstore\n      0x20\n      dup3\n      add\n      mload\n      dup2\n      0x01\n      add\n      swap1\n      dup2\n      tag_74\n      swap2\n      swap1\n      tag_75\n      jump\t// in\n    tag_74:\n      pop\n      0x40\n      dup3\n      add\n      mload\n      dup2\n      0x02\n      add\n      sstore\n      swap1\n      pop\n      pop\n        /* \"contracts/TP1BlockChain.sol\":697:709  candidateIds */\n      0x02\n        /* \"contracts/TP1BlockChain.sol\":715:727  _candidateId */\n      dup2\n        /* \"contracts/TP1BlockChain.sol\":697:728  candidateIds.push(_candidateId) */\n      swap1\n      dup1\n      0x01\n      dup2\n      sload\n      add\n      dup1\n      dup3\n      sstore\n      dup1\n      swap2\n      pop\n      pop\n      0x01\n      swap1\n      sub\n      swap1\n      0x00\n      mstore\n      keccak256(0x00, 0x20)\n      add\n      0x00\n      swap1\n      swap2\n      swap1\n      swap2\n      swap1\n      swap2\n      pop\n      sstore\n        /* \"contracts/TP1BlockChain.sol\":568:735  {... */\n      pop\n        /* \"contracts/TP1BlockChain.sol\":508:735  function addCandidate(string memory _name) public onlyOwner {... */\n      pop\n      jump\t// out\n        /* \"contracts/TP1BlockChain.sol\":178:198  address public owner */\n    tag_34:\n      0x00\n      dup1\n      sload\n      swap1\n      0x0100\n      exp\n      swap1\n      div\n      0xffffffffffffffffffffffffffffffffffffffff\n      and\n      dup2\n      jump\t// out\n        /* \"contracts/TP1BlockChain.sol\":287:325  mapping(address => bool) public voters */\n    tag_40:\n      mstore(0x20, 0x03)\n      dup1\n      0x00\n      mstore\n      keccak256(0x00, 0x40)\n      0x00\n      swap2\n      pop\n      sload\n      swap1\n      0x0100\n      exp\n      swap1\n      div\n      0xff\n      and\n      dup2\n      jump\t// out\n    tag_59:\n      mload(0x40)\n      dup1\n      0x60\n      add\n      0x40\n      mstore\n      dup1\n      0x00\n      dup2\n      mstore\n      0x20\n      add\n      0x60\n      dup2\n      mstore\n      0x20\n      add\n      0x00\n      dup2\n      mstore\n      pop\n      swap1\n      jump\t// out\n        /* \"#utility.yul\":7:82   */\n    tag_77:\n        /* \"#utility.yul\":40:46   */\n      0x00\n        /* \"#utility.yul\":73:75   */\n      0x40\n        /* \"#utility.yul\":67:76   */\n      mload\n        /* \"#utility.yul\":57:76   */\n      swap1\n      pop\n        /* \"#utility.yul\":7:82   */\n      swap1\n      jump\t// out\n        /* \"#utility.yul\":88:205   */\n    tag_78:\n        /* \"#utility.yul\":197:198   */\n      0x00\n        /* \"#utility.yul\":194:195   */\n      dup1\n        /* \"#utility.yul\":187:199   */\n      revert\n        /* \"#utility.yul\":211:328   */\n    tag_79:\n        /* \"#utility.yul\":320:321   */\n      0x00\n        /* \"#utility.yul\":317:318   */\n      dup1\n        /* \"#utility.yul\":310:322   */\n      revert\n        /* \"#utility.yul\":334:411   */\n    tag_80:\n        /* \"#utility.yul\":371:378   */\n      0x00\n        /* \"#utility.yul\":400:405   */\n      dup2\n        /* \"#utility.yul\":389:405   */\n      swap1\n      pop\n        /* \"#utility.yul\":334:411   */\n      swap2\n      swap1\n      pop\n      jump\t// out\n        /* \"#utility.yul\":417:539   */\n    tag_81:\n        /* \"#utility.yul\":490:514   */\n      tag_138\n        /* \"#utility.yul\":508:513   */\n      dup2\n        /* \"#utility.yul\":490:514   */\n      tag_80\n      jump\t// in\n    tag_138:\n        /* \"#utility.yul\":483:488   */\n      dup2\n        /* \"#utility.yul\":480:515   */\n      eq\n        /* \"#utility.yul\":470:533   */\n      tag_139\n      jumpi\n        /* \"#utility.yul\":529:530   */\n      0x00\n        /* \"#utility.yul\":526:527   */\n      dup1\n        /* \"#utility.yul\":519:531   */\n      revert\n        /* \"#utility.yul\":470:533   */\n    tag_139:\n        /* \"#utility.yul\":417:539   */\n      pop\n      jump\t// out\n        /* \"#utility.yul\":545:684   */\n    tag_82:\n        /* \"#utility.yul\":591:596   */\n      0x00\n        /* \"#utility.yul\":629:635   */\n      dup2\n        /* \"#utility.yul\":616:636   */\n      calldataload\n        /* \"#utility.yul\":607:636   */\n      swap1\n      pop\n        /* \"#utility.yul\":645:678   */\n      tag_141\n        /* \"#utility.yul\":672:677   */\n      dup2\n        /* \"#utility.yul\":645:678   */\n      tag_81\n      jump\t// in\n    tag_141:\n        /* \"#utility.yul\":545:684   */\n      swap3\n      swap2\n      pop\n      pop\n      jump\t// out\n        /* \"#utility.yul\":690:1019   */\n    tag_13:\n        /* \"#utility.yul\":749:755   */\n      0x00\n        /* \"#utility.yul\":798:800   */\n      0x20\n        /* \"#utility.yul\":786:795   */\n      dup3\n        /* \"#utility.yul\":777:784   */\n      dup5\n        /* \"#utility.yul\":773:796   */\n      sub\n        /* \"#utility.yul\":769:801   */\n      slt\n        /* \"#utility.yul\":766:885   */\n      iszero\n      tag_143\n      jumpi\n        /* \"#utility.yul\":804:883   */\n      tag_144\n      tag_78\n      jump\t// in\n    tag_144:\n        /* \"#utility.yul\":766:885   */\n    tag_143:\n        /* \"#utility.yul\":924:925   */\n      0x00\n        /* \"#utility.yul\":949:1002   */\n      tag_145\n        /* \"#utility.yul\":994:1001   */\n      dup5\n        /* \"#utility.yul\":985:991   */\n      dup3\n        /* \"#utility.yul\":974:983   */\n      dup6\n        /* \"#utility.yul\":970:992   */\n      add\n        /* \"#utility.yul\":949:1002   */\n      tag_82\n      jump\t// in\n    tag_145:\n        /* \"#utility.yul\":939:1002   */\n      swap2\n      pop\n        /* \"#utility.yul\":895:1012   */\n      pop\n        /* \"#utility.yul\":690:1019   */\n      swap3\n      swap2\n      pop\n      pop\n      jump\t// out\n        /* \"#utility.yul\":1025:1143   */\n    tag_83:\n        /* \"#utility.yul\":1112:1136   */\n      tag_147\n        /* \"#utility.yul\":1130:1135   */\n      dup2\n        /* \"#utility.yul\":1112:1136   */\n      tag_80\n      jump\t// in\n    tag_147:\n        /* \"#utility.yul\":1107:1110   */\n      dup3\n        /* \"#utility.yul\":1100:1137   */\n      mstore\n        /* \"#utility.yul\":1025:1143   */\n      pop\n      pop\n      jump\t// out\n        /* \"#utility.yul\":1149:1248   */\n    tag_84:\n        /* \"#utility.yul\":1201:1207   */\n      0x00\n        /* \"#utility.yul\":1235:1240   */\n      dup2\n        /* \"#utility.yul\":1229:1241   */\n      mload\n        /* \"#utility.yul\":1219:1241   */\n      swap1\n      pop\n        /* \"#utility.yul\":1149:1248   */\n      swap2\n      swap1\n      pop\n      jump\t// out\n        /* \"#utility.yul\":1254:1423   */\n    tag_85:\n        /* \"#utility.yul\":1338:1349   */\n      0x00\n        /* \"#utility.yul\":1372:1378   */\n      dup3\n        /* \"#utility.yul\":1367:1370   */\n      dup3\n        /* \"#utility.yul\":1360:1379   */\n      mstore\n        /* \"#utility.yul\":1412:1416   */\n      0x20\n        /* \"#utility.yul\":1407:1410   */\n      dup3\n        /* \"#utility.yul\":1403:1417   */\n      add\n        /* \"#utility.yul\":1388:1417   */\n      swap1\n      pop\n        /* \"#utility.yul\":1254:1423   */\n      swap3\n      swap2\n      pop\n      pop\n      jump\t// out\n        /* \"#utility.yul\":1429:1675   */\n    tag_86:\n        /* \"#utility.yul\":1510:1511   */\n      0x00\n        /* \"#utility.yul\":1520:1633   */\n    tag_151:\n        /* \"#utility.yul\":1534:1540   */\n      dup4\n        /* \"#utility.yul\":1531:1532   */\n      dup2\n        /* \"#utility.yul\":1528:1541   */\n      lt\n        /* \"#utility.yul\":1520:1633   */\n      iszero\n      tag_153\n      jumpi\n        /* \"#utility.yul\":1619:1620   */\n      dup1\n        /* \"#utility.yul\":1614:1617   */\n      dup3\n        /* \"#utility.yul\":1610:1621   */\n      add\n        /* \"#utility.yul\":1604:1622   */\n      mload\n        /* \"#utility.yul\":1600:1601   */\n      dup2\n        /* \"#utility.yul\":1595:1598   */\n      dup5\n        /* \"#utility.yul\":1591:1602   */\n      add\n        /* \"#utility.yul\":1584:1623   */\n      mstore\n        /* \"#utility.yul\":1556:1558   */\n      0x20\n        /* \"#utility.yul\":1553:1554   */\n      dup2\n        /* \"#utility.yul\":1549:1559   */\n      add\n        /* \"#utility.yul\":1544:1559   */\n      swap1\n      pop\n        /* \"#utility.yul\":1520:1633   */\n      jump(tag_151)\n    tag_153:\n        /* \"#utility.yul\":1667:1668   */\n      0x00\n        /* \"#utility.yul\":1658:1664   */\n      dup5\n        /* \"#utility.yul\":1653:1656   */\n      dup5\n        /* \"#utility.yul\":1649:1665   */\n      add\n        /* \"#utility.yul\":1642:1669   */\n      mstore\n        /* \"#utility.yul\":1491:1675   */\n      pop\n        /* \"#utility.yul\":1429:1675   */\n      pop\n      pop\n      pop\n      jump\t// out\n        /* \"#utility.yul\":1681:1783   */\n    tag_87:\n        /* \"#utility.yul\":1722:1728   */\n      0x00\n        /* \"#utility.yul\":1773:1775   */\n      0x1f\n        /* \"#utility.yul\":1769:1776   */\n      not\n        /* \"#utility.yul\":1764:1766   */\n      0x1f\n        /* \"#utility.yul\":1757:1762   */\n      dup4\n        /* \"#utility.yul\":1753:1767   */\n      add\n        /* \"#utility.yul\":1749:1777   */\n      and\n        /* \"#utility.yul\":1739:1777   */\n      swap1\n      pop\n        /* \"#utility.yul\":1681:1783   */\n      swap2\n      swap1\n      pop\n      jump\t// out\n        /* \"#utility.yul\":1789:2166   */\n    tag_88:\n        /* \"#utility.yul\":1877:1880   */\n      0x00\n        /* \"#utility.yul\":1905:1944   */\n      tag_156\n        /* \"#utility.yul\":1938:1943   */\n      dup3\n        /* \"#utility.yul\":1905:1944   */\n      tag_84\n      jump\t// in\n    tag_156:\n        /* \"#utility.yul\":1960:2031   */\n      tag_157\n        /* \"#utility.yul\":2024:2030   */\n      dup2\n        /* \"#utility.yul\":2019:2022   */\n      dup6\n        /* \"#utility.yul\":1960:2031   */\n      tag_85\n      jump\t// in\n    tag_157:\n        /* \"#utility.yul\":1953:2031   */\n      swap4\n      pop\n        /* \"#utility.yul\":2040:2105   */\n      tag_158\n        /* \"#utility.yul\":2098:2104   */\n      dup2\n        /* \"#utility.yul\":2093:2096   */\n      dup6\n        /* \"#utility.yul\":2086:2090   */\n      0x20\n        /* \"#utility.yul\":2079:2084   */\n      dup7\n        /* \"#utility.yul\":2075:2091   */\n      add\n        /* \"#utility.yul\":2040:2105   */\n      tag_86\n      jump\t// in\n    tag_158:\n        /* \"#utility.yul\":2130:2159   */\n      tag_159\n        /* \"#utility.yul\":2152:2158   */\n      dup2\n        /* \"#utility.yul\":2130:2159   */\n      tag_87\n      jump\t// in\n    tag_159:\n        /* \"#utility.yul\":2125:2128   */\n      dup5\n        /* \"#utility.yul\":2121:2160   */\n      add\n        /* \"#utility.yul\":2114:2160   */\n      swap2\n      pop\n        /* \"#utility.yul\":1881:2166   */\n      pop\n        /* \"#utility.yul\":1789:2166   */\n      swap3\n      swap2\n      pop\n      pop\n      jump\t// out\n        /* \"#utility.yul\":2172:2705   */\n    tag_19:\n        /* \"#utility.yul\":2341:2345   */\n      0x00\n        /* \"#utility.yul\":2379:2381   */\n      0x60\n        /* \"#utility.yul\":2368:2377   */\n      dup3\n        /* \"#utility.yul\":2364:2382   */\n      add\n        /* \"#utility.yul\":2356:2382   */\n      swap1\n      pop\n        /* \"#utility.yul\":2392:2463   */\n      tag_161\n        /* \"#utility.yul\":2460:2461   */\n      0x00\n        /* \"#utility.yul\":2449:2458   */\n      dup4\n        /* \"#utility.yul\":2445:2462   */\n      add\n        /* \"#utility.yul\":2436:2442   */\n      dup7\n        /* \"#utility.yul\":2392:2463   */\n      tag_83\n      jump\t// in\n    tag_161:\n        /* \"#utility.yul\":2510:2519   */\n      dup2\n        /* \"#utility.yul\":2504:2508   */\n      dup2\n        /* \"#utility.yul\":2500:2520   */\n      sub\n        /* \"#utility.yul\":2495:2497   */\n      0x20\n        /* \"#utility.yul\":2484:2493   */\n      dup4\n        /* \"#utility.yul\":2480:2498   */\n      add\n        /* \"#utility.yul\":2473:2521   */\n      mstore\n        /* \"#utility.yul\":2538:2616   */\n      tag_162\n        /* \"#utility.yul\":2611:2615   */\n      dup2\n        /* \"#utility.yul\":2602:2608   */\n      dup6\n        /* \"#utility.yul\":2538:2616   */\n      tag_88\n      jump\t// in\n    tag_162:\n        /* \"#utility.yul\":2530:2616   */\n      swap1\n      pop\n        /* \"#utility.yul\":2626:2698   */\n      tag_163\n        /* \"#utility.yul\":2694:2696   */\n      0x40\n        /* \"#utility.yul\":2683:2692   */\n      dup4\n        /* \"#utility.yul\":2679:2697   */\n      add\n        /* \"#utility.yul\":2670:2676   */\n      dup5\n        /* \"#utility.yul\":2626:2698   */\n      tag_83\n      jump\t// in\n    tag_163:\n        /* \"#utility.yul\":2172:2705   */\n      swap5\n      swap4\n      pop\n      pop\n      pop\n      pop\n      jump\t// out\n        /* \"#utility.yul\":2711:2819   */\n    tag_89:\n        /* \"#utility.yul\":2788:2812   */\n      tag_165\n        /* \"#utility.yul\":2806:2811   */\n      dup2\n        /* \"#utility.yul\":2788:2812   */\n      tag_80\n      jump\t// in\n    tag_165:\n        /* \"#utility.yul\":2783:2786   */\n      dup3\n        /* \"#utility.yul\":2776:2813   */\n      mstore\n        /* \"#utility.yul\":2711:2819   */\n      pop\n      pop\n      jump\t// out\n        /* \"#utility.yul\":2825:2984   */\n    tag_90:\n        /* \"#utility.yul\":2899:2910   */\n      0x00\n        /* \"#utility.yul\":2933:2939   */\n      dup3\n        /* \"#utility.yul\":2928:2931   */\n      dup3\n        /* \"#utility.yul\":2921:2940   */\n      mstore\n        /* \"#utility.yul\":2973:2977   */\n      0x20\n        /* \"#utility.yul\":2968:2971   */\n      dup3\n        /* \"#utility.yul\":2964:2978   */\n      add\n        /* \"#utility.yul\":2949:2978   */\n      swap1\n      pop\n        /* \"#utility.yul\":2825:2984   */\n      swap3\n      swap2\n      pop\n      pop\n      jump\t// out\n        /* \"#utility.yul\":2990:3347   */\n    tag_91:\n        /* \"#utility.yul\":3068:3071   */\n      0x00\n        /* \"#utility.yul\":3096:3135   */\n      tag_168\n        /* \"#utility.yul\":3129:3134   */\n      dup3\n        /* \"#utility.yul\":3096:3135   */\n      tag_84\n      jump\t// in\n    tag_168:\n        /* \"#utility.yul\":3151:3212   */\n      tag_169\n        /* \"#utility.yul\":3205:3211   */\n      dup2\n        /* \"#utility.yul\":3200:3203   */\n      dup6\n        /* \"#utility.yul\":3151:3212   */\n      tag_90\n      jump\t// in\n    tag_169:\n        /* \"#utility.yul\":3144:3212   */\n      swap4\n      pop\n        /* \"#utility.yul\":3221:3286   */\n      tag_170\n        /* \"#utility.yul\":3279:3285   */\n      dup2\n        /* \"#utility.yul\":3274:3277   */\n      dup6\n        /* \"#utility.yul\":3267:3271   */\n      0x20\n        /* \"#utility.yul\":3260:3265   */\n      dup7\n        /* \"#utility.yul\":3256:3272   */\n      add\n        /* \"#utility.yul\":3221:3286   */\n      tag_86\n      jump\t// in\n    tag_170:\n        /* \"#utility.yul\":3311:3340   */\n      tag_171\n        /* \"#utility.yul\":3333:3339   */\n      dup2\n        /* \"#utility.yul\":3311:3340   */\n      tag_87\n      jump\t// in\n    tag_171:\n        /* \"#utility.yul\":3306:3309   */\n      dup5\n        /* \"#utility.yul\":3302:3341   */\n      add\n        /* \"#utility.yul\":3295:3341   */\n      swap2\n      pop\n        /* \"#utility.yul\":3072:3347   */\n      pop\n        /* \"#utility.yul\":2990:3347   */\n      swap3\n      swap2\n      pop\n      pop\n      jump\t// out\n        /* \"#utility.yul\":3423:4204   */\n    tag_92:\n        /* \"#utility.yul\":3540:3543   */\n      0x00\n        /* \"#utility.yul\":3576:3580   */\n      0x60\n        /* \"#utility.yul\":3571:3574   */\n      dup4\n        /* \"#utility.yul\":3567:3581   */\n      add\n        /* \"#utility.yul\":3661:3665   */\n      0x00\n        /* \"#utility.yul\":3654:3659   */\n      dup4\n        /* \"#utility.yul\":3650:3666   */\n      add\n        /* \"#utility.yul\":3644:3667   */\n      mload\n        /* \"#utility.yul\":3680:3743   */\n      tag_173\n        /* \"#utility.yul\":3737:3741   */\n      0x00\n        /* \"#utility.yul\":3732:3735   */\n      dup7\n        /* \"#utility.yul\":3728:3742   */\n      add\n        /* \"#utility.yul\":3714:3726   */\n      dup3\n        /* \"#utility.yul\":3680:3743   */\n      tag_89\n      jump\t// in\n    tag_173:\n        /* \"#utility.yul\":3591:3753   */\n      pop\n        /* \"#utility.yul\":3835:3839   */\n      0x20\n        /* \"#utility.yul\":3828:3833   */\n      dup4\n        /* \"#utility.yul\":3824:3840   */\n      add\n        /* \"#utility.yul\":3818:3841   */\n      mload\n        /* \"#utility.yul\":3888:3891   */\n      dup5\n        /* \"#utility.yul\":3882:3886   */\n      dup3\n        /* \"#utility.yul\":3878:3892   */\n      sub\n        /* \"#utility.yul\":3871:3875   */\n      0x20\n        /* \"#utility.yul\":3866:3869   */\n      dup7\n        /* \"#utility.yul\":3862:3876   */\n      add\n        /* \"#utility.yul\":3855:3893   */\n      mstore\n        /* \"#utility.yul\":3914:3987   */\n      tag_174\n        /* \"#utility.yul\":3982:3986   */\n      dup3\n        /* \"#utility.yul\":3968:3980   */\n      dup3\n        /* \"#utility.yul\":3914:3987   */\n      tag_91\n      jump\t// in\n    tag_174:\n        /* \"#utility.yul\":3906:3987   */\n      swap2\n      pop\n        /* \"#utility.yul\":3763:3998   */\n      pop\n        /* \"#utility.yul\":4085:4089   */\n      0x40\n        /* \"#utility.yul\":4078:4083   */\n      dup4\n        /* \"#utility.yul\":4074:4090   */\n      add\n        /* \"#utility.yul\":4068:4091   */\n      mload\n        /* \"#utility.yul\":4104:4167   */\n      tag_175\n        /* \"#utility.yul\":4161:4165   */\n      0x40\n        /* \"#utility.yul\":4156:4159   */\n      dup7\n        /* \"#utility.yul\":4152:4166   */\n      add\n        /* \"#utility.yul\":4138:4150   */\n      dup3\n        /* \"#utility.yul\":4104:4167   */\n      tag_89\n      jump\t// in\n    tag_175:\n        /* \"#utility.yul\":4008:4177   */\n      pop\n        /* \"#utility.yul\":4194:4198   */\n      dup1\n        /* \"#utility.yul\":4187:4198   */\n      swap2\n      pop\n        /* \"#utility.yul\":3545:4204   */\n      pop\n        /* \"#utility.yul\":3423:4204   */\n      swap3\n      swap2\n      pop\n      pop\n      jump\t// out\n        /* \"#utility.yul\":4210:4579   */\n    tag_24:\n        /* \"#utility.yul\":4351:4355   */\n      0x00\n        /* \"#utility.yul\":4389:4391   */\n      0x20\n        /* \"#utility.yul\":4378:4387   */\n      dup3\n        /* \"#utility.yul\":4374:4392   */\n      add\n        /* \"#utility.yul\":4366:4392   */\n      swap1\n      pop\n        /* \"#utility.yul\":4438:4447   */\n      dup2\n        /* \"#utility.yul\":4432:4436   */\n      dup2\n        /* \"#utility.yul\":4428:4448   */\n      sub\n        /* \"#utility.yul\":4424:4425   */\n      0x00\n        /* \"#utility.yul\":4413:4422   */\n      dup4\n        /* \"#utility.yul\":4409:4426   */\n      add\n        /* \"#utility.yul\":4402:4449   */\n      mstore\n        /* \"#utility.yul\":4466:4572   */\n      tag_177\n        /* \"#utility.yul\":4567:4571   */\n      dup2\n        /* \"#utility.yul\":4558:4564   */\n      dup5\n        /* \"#utility.yul\":4466:4572   */\n      tag_92\n      jump\t// in\n    tag_177:\n        /* \"#utility.yul\":4458:4572   */\n      swap1\n      pop\n        /* \"#utility.yul\":4210:4579   */\n      swap3\n      swap2\n      pop\n      pop\n      jump\t// out\n        /* \"#utility.yul\":4585:4807   */\n    tag_28:\n        /* \"#utility.yul\":4678:4682   */\n      0x00\n        /* \"#utility.yul\":4716:4718   */\n      0x20\n        /* \"#utility.yul\":4705:4714   */\n      dup3\n        /* \"#utility.yul\":4701:4719   */\n      add\n        /* \"#utility.yul\":4693:4719   */\n      swap1\n      pop\n        /* \"#utility.yul\":4729:4800   */\n      tag_179\n        /* \"#utility.yul\":4797:4798   */\n      0x00\n        /* \"#utility.yul\":4786:4795   */\n      dup4\n        /* \"#utility.yul\":4782:4799   */\n      add\n        /* \"#utility.yul\":4773:4779   */\n      dup5\n        /* \"#utility.yul\":4729:4800   */\n      tag_83\n      jump\t// in\n    tag_179:\n        /* \"#utility.yul\":4585:4807   */\n      swap3\n      swap2\n      pop\n      pop\n      jump\t// out\n        /* \"#utility.yul\":4813:4930   */\n    tag_93:\n        /* \"#utility.yul\":4922:4923   */\n      0x00\n        /* \"#utility.yul\":4919:4920   */\n      dup1\n        /* \"#utility.yul\":4912:4924   */\n      revert\n        /* \"#utility.yul\":4936:5053   */\n    tag_94:\n        /* \"#utility.yul\":5045:5046   */\n      0x00\n        /* \"#utility.yul\":5042:5043   */\n      dup1\n        /* \"#utility.yul\":5035:5047   */\n      revert\n        /* \"#utility.yul\":5059:5239   */\n    tag_95:\n        /* \"#utility.yul\":5107:5184   */\n      0x4e487b7100000000000000000000000000000000000000000000000000000000\n        /* \"#utility.yul\":5104:5105   */\n      0x00\n        /* \"#utility.yul\":5097:5185   */\n      mstore\n        /* \"#utility.yul\":5204:5208   */\n      0x41\n        /* \"#utility.yul\":5201:5202   */\n      0x04\n        /* \"#utility.yul\":5194:5209   */\n      mstore\n        /* \"#utility.yul\":5228:5232   */\n      0x24\n        /* \"#utility.yul\":5225:5226   */\n      0x00\n        /* \"#utility.yul\":5218:5233   */\n      revert\n        /* \"#utility.yul\":5245:5526   */\n    tag_96:\n        /* \"#utility.yul\":5328:5355   */\n      tag_184\n        /* \"#utility.yul\":5350:5354   */\n      dup3\n        /* \"#utility.yul\":5328:5355   */\n      tag_87\n      jump\t// in\n    tag_184:\n        /* \"#utility.yul\":5320:5326   */\n      dup2\n        /* \"#utility.yul\":5316:5356   */\n      add\n        /* \"#utility.yul\":5458:5464   */\n      dup2\n        /* \"#utility.yul\":5446:5456   */\n      dup2\n        /* \"#utility.yul\":5443:5465   */\n      lt\n        /* \"#utility.yul\":5422:5440   */\n      0xffffffffffffffff\n        /* \"#utility.yul\":5410:5420   */\n      dup3\n        /* \"#utility.yul\":5407:5441   */\n      gt\n        /* \"#utility.yul\":5404:5466   */\n      or\n        /* \"#utility.yul\":5401:5489   */\n      iszero\n      tag_185\n      jumpi\n        /* \"#utility.yul\":5469:5487   */\n      tag_186\n      tag_95\n      jump\t// in\n    tag_186:\n        /* \"#utility.yul\":5401:5489   */\n    tag_185:\n        /* \"#utility.yul\":5509:5519   */\n      dup1\n        /* \"#utility.yul\":5505:5507   */\n      0x40\n        /* \"#utility.yul\":5498:5520   */\n      mstore\n        /* \"#utility.yul\":5288:5526   */\n      pop\n        /* \"#utility.yul\":5245:5526   */\n      pop\n      pop\n      jump\t// out\n        /* \"#utility.yul\":5532:5661   */\n    tag_97:\n        /* \"#utility.yul\":5566:5572   */\n      0x00\n        /* \"#utility.yul\":5593:5613   */\n      tag_188\n      tag_77\n      jump\t// in\n    tag_188:\n        /* \"#utility.yul\":5583:5613   */\n      swap1\n      pop\n        /* \"#utility.yul\":5622:5655   */\n      tag_189\n        /* \"#utility.yul\":5650:5654   */\n      dup3\n        /* \"#utility.yul\":5642:5648   */\n      dup3\n        /* \"#utility.yul\":5622:5655   */\n      tag_96\n      jump\t// in\n    tag_189:\n        /* \"#utility.yul\":5532:5661   */\n      swap2\n      swap1\n      pop\n      jump\t// out\n        /* \"#utility.yul\":5667:5975   */\n    tag_98:\n        /* \"#utility.yul\":5729:5733   */\n      0x00\n        /* \"#utility.yul\":5819:5837   */\n      0xffffffffffffffff\n        /* \"#utility.yul\":5811:5817   */\n      dup3\n        /* \"#utility.yul\":5808:5838   */\n      gt\n        /* \"#utility.yul\":5805:5861   */\n      iszero\n      tag_191\n      jumpi\n        /* \"#utility.yul\":5841:5859   */\n      tag_192\n      tag_95\n      jump\t// in\n    tag_192:\n        /* \"#utility.yul\":5805:5861   */\n    tag_191:\n        /* \"#utility.yul\":5879:5908   */\n      tag_193\n        /* \"#utility.yul\":5901:5907   */\n      dup3\n        /* \"#utility.yul\":5879:5908   */\n      tag_87\n      jump\t// in\n    tag_193:\n        /* \"#utility.yul\":5871:5908   */\n      swap1\n      pop\n        /* \"#utility.yul\":5963:5967   */\n      0x20\n        /* \"#utility.yul\":5957:5961   */\n      dup2\n        /* \"#utility.yul\":5953:5968   */\n      add\n        /* \"#utility.yul\":5945:5968   */\n      swap1\n      pop\n        /* \"#utility.yul\":5667:5975   */\n      swap2\n      swap1\n      pop\n      jump\t// out\n        /* \"#utility.yul\":5981:6127   */\n    tag_99:\n        /* \"#utility.yul\":6078:6084   */\n      dup3\n        /* \"#utility.yul\":6073:6076   */\n      dup2\n        /* \"#utility.yul\":6068:6071   */\n      dup4\n        /* \"#utility.yul\":6055:6085   */\n      calldatacopy\n        /* \"#utility.yul\":6119:6120   */\n      0x00\n        /* \"#utility.yul\":6110:6116   */\n      dup4\n        /* \"#utility.yul\":6105:6108   */\n      dup4\n        /* \"#utility.yul\":6101:6117   */\n      add\n        /* \"#utility.yul\":6094:6121   */\n      mstore\n        /* \"#utility.yul\":5981:6127   */\n      pop\n      pop\n      pop\n      jump\t// out\n        /* \"#utility.yul\":6133:6558   */\n    tag_100:\n        /* \"#utility.yul\":6211:6216   */\n      0x00\n        /* \"#utility.yul\":6236:6302   */\n      tag_196\n        /* \"#utility.yul\":6252:6301   */\n      tag_197\n        /* \"#utility.yul\":6294:6300   */\n      dup5\n        /* \"#utility.yul\":6252:6301   */\n      tag_98\n      jump\t// in\n    tag_197:\n        /* \"#utility.yul\":6236:6302   */\n      tag_97\n      jump\t// in\n    tag_196:\n        /* \"#utility.yul\":6227:6302   */\n      swap1\n      pop\n        /* \"#utility.yul\":6325:6331   */\n      dup3\n        /* \"#utility.yul\":6318:6323   */\n      dup2\n        /* \"#utility.yul\":6311:6332   */\n      mstore\n        /* \"#utility.yul\":6363:6367   */\n      0x20\n        /* \"#utility.yul\":6356:6361   */\n      dup2\n        /* \"#utility.yul\":6352:6368   */\n      add\n        /* \"#utility.yul\":6401:6404   */\n      dup5\n        /* \"#utility.yul\":6392:6398   */\n      dup5\n        /* \"#utility.yul\":6387:6390   */\n      dup5\n        /* \"#utility.yul\":6383:6399   */\n      add\n        /* \"#utility.yul\":6380:6405   */\n      gt\n        /* \"#utility.yul\":6377:6489   */\n      iszero\n      tag_198\n      jumpi\n        /* \"#utility.yul\":6408:6487   */\n      tag_199\n      tag_94\n      jump\t// in\n    tag_199:\n        /* \"#utility.yul\":6377:6489   */\n    tag_198:\n        /* \"#utility.yul\":6498:6552   */\n      tag_200\n        /* \"#utility.yul\":6545:6551   */\n      dup5\n        /* \"#utility.yul\":6540:6543   */\n      dup3\n        /* \"#utility.yul\":6535:6538   */\n      dup6\n        /* \"#utility.yul\":6498:6552   */\n      tag_99\n      jump\t// in\n    tag_200:\n        /* \"#utility.yul\":6217:6558   */\n      pop\n        /* \"#utility.yul\":6133:6558   */\n      swap4\n      swap3\n      pop\n      pop\n      pop\n      jump\t// out\n        /* \"#utility.yul\":6578:6918   */\n    tag_101:\n        /* \"#utility.yul\":6634:6639   */\n      0x00\n        /* \"#utility.yul\":6683:6686   */\n      dup3\n        /* \"#utility.yul\":6676:6680   */\n      0x1f\n        /* \"#utility.yul\":6668:6674   */\n      dup4\n        /* \"#utility.yul\":6664:6681   */\n      add\n        /* \"#utility.yul\":6660:6687   */\n      slt\n        /* \"#utility.yul\":6650:6772   */\n      tag_202\n      jumpi\n        /* \"#utility.yul\":6691:6770   */\n      tag_203\n      tag_93\n      jump\t// in\n    tag_203:\n        /* \"#utility.yul\":6650:6772   */\n    tag_202:\n        /* \"#utility.yul\":6808:6814   */\n      dup2\n        /* \"#utility.yul\":6795:6815   */\n      calldataload\n        /* \"#utility.yul\":6833:6912   */\n      tag_204\n        /* \"#utility.yul\":6908:6911   */\n      dup5\n        /* \"#utility.yul\":6900:6906   */\n      dup3\n        /* \"#utility.yul\":6893:6897   */\n      0x20\n        /* \"#utility.yul\":6885:6891   */\n      dup7\n        /* \"#utility.yul\":6881:6898   */\n      add\n        /* \"#utility.yul\":6833:6912   */\n      tag_100\n      jump\t// in\n    tag_204:\n        /* \"#utility.yul\":6824:6912   */\n      swap2\n      pop\n        /* \"#utility.yul\":6640:6918   */\n      pop\n        /* \"#utility.yul\":6578:6918   */\n      swap3\n      swap2\n      pop\n      pop\n      jump\t// out\n        /* \"#utility.yul\":6924:7433   */\n    tag_31:\n        /* \"#utility.yul\":6993:6999   */\n      0x00\n        /* \"#utility.yul\":7042:7044   */\n      0x20\n        /* \"#utility.yul\":7030:7039   */\n      dup3\n        /* \"#utility.yul\":7021:7028   */\n      dup5\n        /* \"#utility.yul\":7017:7040   */\n      sub\n        /* \"#utility.yul\":7013:7045   */\n      slt\n        /* \"#utility.yul\":7010:7129   */\n      iszero\n      tag_206\n      jumpi\n        /* \"#utility.yul\":7048:7127   */\n      tag_207\n      tag_78\n      jump\t// in\n    tag_207:\n        /* \"#utility.yul\":7010:7129   */\n    tag_206:\n        /* \"#utility.yul\":7196:7197   */\n      0x00\n        /* \"#utility.yul\":7185:7194   */\n      dup3\n        /* \"#utility.yul\":7181:7198   */\n      add\n        /* \"#utility.yul\":7168:7199   */\n      calldataload\n        /* \"#utility.yul\":7226:7244   */\n      0xffffffffffffffff\n        /* \"#utility.yul\":7218:7224   */\n      dup2\n        /* \"#utility.yul\":7215:7245   */\n      gt\n        /* \"#utility.yul\":7212:7329   */\n      iszero\n      tag_208\n      jumpi\n        /* \"#utility.yul\":7248:7327   */\n      tag_209\n      tag_79\n      jump\t// in\n    tag_209:\n        /* \"#utility.yul\":7212:7329   */\n    tag_208:\n        /* \"#utility.yul\":7353:7416   */\n      tag_210\n        /* \"#utility.yul\":7408:7415   */\n      dup5\n        /* \"#utility.yul\":7399:7405   */\n      dup3\n        /* \"#utility.yul\":7388:7397   */\n      dup6\n        /* \"#utility.yul\":7384:7406   */\n      add\n        /* \"#utility.yul\":7353:7416   */\n      tag_101\n      jump\t// in\n    tag_210:\n        /* \"#utility.yul\":7343:7416   */\n      swap2\n      pop\n        /* \"#utility.yul\":7139:7426   */\n      pop\n        /* \"#utility.yul\":6924:7433   */\n      swap3\n      swap2\n      pop\n      pop\n      jump\t// out\n        /* \"#utility.yul\":7439:7565   */\n    tag_102:\n        /* \"#utility.yul\":7476:7483   */\n      0x00\n        /* \"#utility.yul\":7516:7558   */\n      0xffffffffffffffffffffffffffffffffffffffff\n        /* \"#utility.yul\":7509:7514   */\n      dup3\n        /* \"#utility.yul\":7505:7559   */\n      and\n        /* \"#utility.yul\":7494:7559   */\n      swap1\n      pop\n        /* \"#utility.yul\":7439:7565   */\n      swap2\n      swap1\n      pop\n      jump\t// out\n        /* \"#utility.yul\":7571:7667   */\n    tag_103:\n        /* \"#utility.yul\":7608:7615   */\n      0x00\n        /* \"#utility.yul\":7637:7661   */\n      tag_213\n        /* \"#utility.yul\":7655:7660   */\n      dup3\n        /* \"#utility.yul\":7637:7661   */\n      tag_102\n      jump\t// in\n    tag_213:\n        /* \"#utility.yul\":7626:7661   */\n      swap1\n      pop\n        /* \"#utility.yul\":7571:7667   */\n      swap2\n      swap1\n      pop\n      jump\t// out\n        /* \"#utility.yul\":7673:7791   */\n    tag_104:\n        /* \"#utility.yul\":7760:7784   */\n      tag_215\n        /* \"#utility.yul\":7778:7783   */\n      dup2\n        /* \"#utility.yul\":7760:7784   */\n      tag_103\n      jump\t// in\n    tag_215:\n        /* \"#utility.yul\":7755:7758   */\n      dup3\n        /* \"#utility.yul\":7748:7785   */\n      mstore\n        /* \"#utility.yul\":7673:7791   */\n      pop\n      pop\n      jump\t// out\n        /* \"#utility.yul\":7797:8019   */\n    tag_36:\n        /* \"#utility.yul\":7890:7894   */\n      0x00\n        /* \"#utility.yul\":7928:7930   */\n      0x20\n        /* \"#utility.yul\":7917:7926   */\n      dup3\n        /* \"#utility.yul\":7913:7931   */\n      add\n        /* \"#utility.yul\":7905:7931   */\n      swap1\n      pop\n        /* \"#utility.yul\":7941:8012   */\n      tag_217\n        /* \"#utility.yul\":8009:8010   */\n      0x00\n        /* \"#utility.yul\":7998:8007   */\n      dup4\n        /* \"#utility.yul\":7994:8011   */\n      add\n        /* \"#utility.yul\":7985:7991   */\n      dup5\n        /* \"#utility.yul\":7941:8012   */\n      tag_104\n      jump\t// in\n    tag_217:\n        /* \"#utility.yul\":7797:8019   */\n      swap3\n      swap2\n      pop\n      pop\n      jump\t// out\n        /* \"#utility.yul\":8025:8147   */\n    tag_105:\n        /* \"#utility.yul\":8098:8122   */\n      tag_219\n        /* \"#utility.yul\":8116:8121   */\n      dup2\n        /* \"#utility.yul\":8098:8122   */\n      tag_103\n      jump\t// in\n    tag_219:\n        /* \"#utility.yul\":8091:8096   */\n      dup2\n        /* \"#utility.yul\":8088:8123   */\n      eq\n        /* \"#utility.yul\":8078:8141   */\n      tag_220\n      jumpi\n        /* \"#utility.yul\":8137:8138   */\n      0x00\n        /* \"#utility.yul\":8134:8135   */\n      dup1\n        /* \"#utility.yul\":8127:8139   */\n      revert\n        /* \"#utility.yul\":8078:8141   */\n    tag_220:\n        /* \"#utility.yul\":8025:8147   */\n      pop\n      jump\t// out\n        /* \"#utility.yul\":8153:8292   */\n    tag_106:\n        /* \"#utility.yul\":8199:8204   */\n      0x00\n        /* \"#utility.yul\":8237:8243   */\n      dup2\n        /* \"#utility.yul\":8224:8244   */\n      calldataload\n        /* \"#utility.yul\":8215:8244   */\n      swap1\n      pop\n        /* \"#utility.yul\":8253:8286   */\n      tag_222\n        /* \"#utility.yul\":8280:8285   */\n      dup2\n        /* \"#utility.yul\":8253:8286   */\n      tag_105\n      jump\t// in\n    tag_222:\n        /* \"#utility.yul\":8153:8292   */\n      swap3\n      swap2\n      pop\n      pop\n      jump\t// out\n        /* \"#utility.yul\":8298:8627   */\n    tag_39:\n        /* \"#utility.yul\":8357:8363   */\n      0x00\n        /* \"#utility.yul\":8406:8408   */\n      0x20\n        /* \"#utility.yul\":8394:8403   */\n      dup3\n        /* \"#utility.yul\":8385:8392   */\n      dup5\n        /* \"#utility.yul\":8381:8404   */\n      sub\n        /* \"#utility.yul\":8377:8409   */\n      slt\n        /* \"#utility.yul\":8374:8493   */\n      iszero\n      tag_224\n      jumpi\n        /* \"#utility.yul\":8412:8491   */\n      tag_225\n      tag_78\n      jump\t// in\n    tag_225:\n        /* \"#utility.yul\":8374:8493   */\n    tag_224:\n        /* \"#utility.yul\":8532:8533   */\n      0x00\n        /* \"#utility.yul\":8557:8610   */\n      tag_226\n        /* \"#utility.yul\":8602:8609   */\n      dup5\n        /* \"#utility.yul\":8593:8599   */\n      dup3\n        /* \"#utility.yul\":8582:8591   */\n      dup6\n        /* \"#utility.yul\":8578:8600   */\n      add\n        /* \"#utility.yul\":8557:8610   */\n      tag_106\n      jump\t// in\n    tag_226:\n        /* \"#utility.yul\":8547:8610   */\n      swap2\n      pop\n        /* \"#utility.yul\":8503:8620   */\n      pop\n        /* \"#utility.yul\":8298:8627   */\n      swap3\n      swap2\n      pop\n      pop\n      jump\t// out\n        /* \"#utility.yul\":8633:8723   */\n    tag_107:\n        /* \"#utility.yul\":8667:8674   */\n      0x00\n        /* \"#utility.yul\":8710:8715   */\n      dup2\n        /* \"#utility.yul\":8703:8716   */\n      iszero\n        /* \"#utility.yul\":8696:8717   */\n      iszero\n        /* \"#utility.yul\":8685:8717   */\n      swap1\n      pop\n        /* \"#utility.yul\":8633:8723   */\n      swap2\n      swap1\n      pop\n      jump\t// out\n        /* \"#utility.yul\":8729:8838   */\n    tag_108:\n        /* \"#utility.yul\":8810:8831   */\n      tag_229\n        /* \"#utility.yul\":8825:8830   */\n      dup2\n        /* \"#utility.yul\":8810:8831   */\n      tag_107\n      jump\t// in\n    tag_229:\n        /* \"#utility.yul\":8805:8808   */\n      dup3\n        /* \"#utility.yul\":8798:8832   */\n      mstore\n        /* \"#utility.yul\":8729:8838   */\n      pop\n      pop\n      jump\t// out\n        /* \"#utility.yul\":8844:9054   */\n    tag_42:\n        /* \"#utility.yul\":8931:8935   */\n      0x00\n        /* \"#utility.yul\":8969:8971   */\n      0x20\n        /* \"#utility.yul\":8958:8967   */\n      dup3\n        /* \"#utility.yul\":8954:8972   */\n      add\n        /* \"#utility.yul\":8946:8972   */\n      swap1\n      pop\n        /* \"#utility.yul\":8982:9047   */\n      tag_231\n        /* \"#utility.yul\":9044:9045   */\n      0x00\n        /* \"#utility.yul\":9033:9042   */\n      dup4\n        /* \"#utility.yul\":9029:9046   */\n      add\n        /* \"#utility.yul\":9020:9026   */\n      dup5\n        /* \"#utility.yul\":8982:9047   */\n      tag_108\n      jump\t// in\n    tag_231:\n        /* \"#utility.yul\":8844:9054   */\n      swap3\n      swap2\n      pop\n      pop\n      jump\t// out\n        /* \"#utility.yul\":9060:9233   */\n    tag_109:\n        /* \"#utility.yul\":9200:9225   */\n      0x596f75206861766520616c726561647920766f7465642e000000000000000000\n        /* \"#utility.yul\":9196:9197   */\n      0x00\n        /* \"#utility.yul\":9188:9194   */\n      dup3\n        /* \"#utility.yul\":9184:9198   */\n      add\n        /* \"#utility.yul\":9177:9226   */\n      mstore\n        /* \"#utility.yul\":9060:9233   */\n      pop\n      jump\t// out\n        /* \"#utility.yul\":9239:9605   */\n    tag_110:\n        /* \"#utility.yul\":9381:9384   */\n      0x00\n        /* \"#utility.yul\":9402:9469   */\n      tag_234\n        /* \"#utility.yul\":9466:9468   */\n      0x17\n        /* \"#utility.yul\":9461:9464   */\n      dup4\n        /* \"#utility.yul\":9402:9469   */\n      tag_85\n      jump\t// in\n    tag_234:\n        /* \"#utility.yul\":9395:9469   */\n      swap2\n      pop\n        /* \"#utility.yul\":9478:9571   */\n      tag_235\n        /* \"#utility.yul\":9567:9570   */\n      dup3\n        /* \"#utility.yul\":9478:9571   */\n      tag_109\n      jump\t// in\n    tag_235:\n        /* \"#utility.yul\":9596:9598   */\n      0x20\n        /* \"#utility.yul\":9591:9594   */\n      dup3\n        /* \"#utility.yul\":9587:9599   */\n      add\n        /* \"#utility.yul\":9580:9599   */\n      swap1\n      pop\n        /* \"#utility.yul\":9239:9605   */\n      swap2\n      swap1\n      pop\n      jump\t// out\n        /* \"#utility.yul\":9611:10030   */\n    tag_46:\n        /* \"#utility.yul\":9777:9781   */\n      0x00\n        /* \"#utility.yul\":9815:9817   */\n      0x20\n        /* \"#utility.yul\":9804:9813   */\n      dup3\n        /* \"#utility.yul\":9800:9818   */\n      add\n        /* \"#utility.yul\":9792:9818   */\n      swap1\n      pop\n        /* \"#utility.yul\":9864:9873   */\n      dup2\n        /* \"#utility.yul\":9858:9862   */\n      dup2\n        /* \"#utility.yul\":9854:9874   */\n      sub\n        /* \"#utility.yul\":9850:9851   */\n      0x00\n        /* \"#utility.yul\":9839:9848   */\n      dup4\n        /* \"#utility.yul\":9835:9852   */\n      add\n        /* \"#utility.yul\":9828:9875   */\n      mstore\n        /* \"#utility.yul\":9892:10023   */\n      tag_237\n        /* \"#utility.yul\":10018:10022   */\n      dup2\n        /* \"#utility.yul\":9892:10023   */\n      tag_110\n      jump\t// in\n    tag_237:\n        /* \"#utility.yul\":9884:10023   */\n      swap1\n      pop\n        /* \"#utility.yul\":9611:10030   */\n      swap2\n      swap1\n      pop\n      jump\t// out\n        /* \"#utility.yul\":10036:10211   */\n    tag_111:\n        /* \"#utility.yul\":10176:10203   */\n      0x4e6f7420612076616c69642063616e6469646174652049442e00000000000000\n        /* \"#utility.yul\":10172:10173   */\n      0x00\n        /* \"#utility.yul\":10164:10170   */\n      dup3\n        /* \"#utility.yul\":10160:10174   */\n      add\n        /* \"#utility.yul\":10153:10204   */\n      mstore\n        /* \"#utility.yul\":10036:10211   */\n      pop\n      jump\t// out\n        /* \"#utility.yul\":10217:10583   */\n    tag_112:\n        /* \"#utility.yul\":10359:10362   */\n      0x00\n        /* \"#utility.yul\":10380:10447   */\n      tag_240\n        /* \"#utility.yul\":10444:10446   */\n      0x19\n        /* \"#utility.yul\":10439:10442   */\n      dup4\n        /* \"#utility.yul\":10380:10447   */\n      tag_85\n      jump\t// in\n    tag_240:\n        /* \"#utility.yul\":10373:10447   */\n      swap2\n      pop\n        /* \"#utility.yul\":10456:10549   */\n      tag_241\n        /* \"#utility.yul\":10545:10548   */\n      dup3\n        /* \"#utility.yul\":10456:10549   */\n      tag_111\n      jump\t// in\n    tag_241:\n        /* \"#utility.yul\":10574:10576   */\n      0x20\n        /* \"#utility.yul\":10569:10572   */\n      dup3\n        /* \"#utility.yul\":10565:10577   */\n      add\n        /* \"#utility.yul\":10558:10577   */\n      swap1\n      pop\n        /* \"#utility.yul\":10217:10583   */\n      swap2\n      swap1\n      pop\n      jump\t// out\n        /* \"#utility.yul\":10589:11008   */\n    tag_49:\n        /* \"#utility.yul\":10755:10759   */\n      0x00\n        /* \"#utility.yul\":10793:10795   */\n      0x20\n        /* \"#utility.yul\":10782:10791   */\n      dup3\n        /* \"#utility.yul\":10778:10796   */\n      add\n        /* \"#utility.yul\":10770:10796   */\n      swap1\n      pop\n        /* \"#utility.yul\":10842:10851   */\n      dup2\n        /* \"#utility.yul\":10836:10840   */\n      dup2\n        /* \"#utility.yul\":10832:10852   */\n      sub\n        /* \"#utility.yul\":10828:10829   */\n      0x00\n        /* \"#utility.yul\":10817:10826   */\n      dup4\n        /* \"#utility.yul\":10813:10830   */\n      add\n        /* \"#utility.yul\":10806:10853   */\n      mstore\n        /* \"#utility.yul\":10870:11001   */\n      tag_243\n        /* \"#utility.yul\":10996:11000   */\n      dup2\n        /* \"#utility.yul\":10870:11001   */\n      tag_112\n      jump\t// in\n    tag_243:\n        /* \"#utility.yul\":10862:11001   */\n      swap1\n      pop\n        /* \"#utility.yul\":10589:11008   */\n      swap2\n      swap1\n      pop\n      jump\t// out\n        /* \"#utility.yul\":11014:11194   */\n    tag_113:\n        /* \"#utility.yul\":11062:11139   */\n      0x4e487b7100000000000000000000000000000000000000000000000000000000\n        /* \"#utility.yul\":11059:11060   */\n      0x00\n        /* \"#utility.yul\":11052:11140   */\n      mstore\n        /* \"#utility.yul\":11159:11163   */\n      0x11\n        /* \"#utility.yul\":11156:11157   */\n      0x04\n        /* \"#utility.yul\":11149:11164   */\n      mstore\n        /* \"#utility.yul\":11183:11187   */\n      0x24\n        /* \"#utility.yul\":11180:11181   */\n      0x00\n        /* \"#utility.yul\":11173:11188   */\n      revert\n        /* \"#utility.yul\":11200:11391   */\n    tag_51:\n        /* \"#utility.yul\":11240:11243   */\n      0x00\n        /* \"#utility.yul\":11259:11279   */\n      tag_246\n        /* \"#utility.yul\":11277:11278   */\n      dup3\n        /* \"#utility.yul\":11259:11279   */\n      tag_80\n      jump\t// in\n    tag_246:\n        /* \"#utility.yul\":11254:11279   */\n      swap2\n      pop\n        /* \"#utility.yul\":11293:11313   */\n      tag_247\n        /* \"#utility.yul\":11311:11312   */\n      dup4\n        /* \"#utility.yul\":11293:11313   */\n      tag_80\n      jump\t// in\n    tag_247:\n        /* \"#utility.yul\":11288:11313   */\n      swap3\n      pop\n        /* \"#utility.yul\":11336:11337   */\n      dup3\n        /* \"#utility.yul\":11333:11334   */\n      dup3\n        /* \"#utility.yul\":11329:11338   */\n      add\n        /* \"#utility.yul\":11322:11338   */\n      swap1\n      pop\n        /* \"#utility.yul\":11357:11360   */\n      dup1\n        /* \"#utility.yul\":11354:11355   */\n      dup3\n        /* \"#utility.yul\":11351:11361   */\n      gt\n        /* \"#utility.yul\":11348:11384   */\n      iszero\n      tag_248\n      jumpi\n        /* \"#utility.yul\":11364:11382   */\n      tag_249\n      tag_113\n      jump\t// in\n    tag_249:\n        /* \"#utility.yul\":11348:11384   */\n    tag_248:\n        /* \"#utility.yul\":11200:11391   */\n      swap3\n      swap2\n      pop\n      pop\n      jump\t// out\n        /* \"#utility.yul\":11397:11577   */\n    tag_114:\n        /* \"#utility.yul\":11445:11522   */\n      0x4e487b7100000000000000000000000000000000000000000000000000000000\n        /* \"#utility.yul\":11442:11443   */\n      0x00\n        /* \"#utility.yul\":11435:11523   */\n      mstore\n        /* \"#utility.yul\":11542:11546   */\n      0x22\n        /* \"#utility.yul\":11539:11540   */\n      0x04\n        /* \"#utility.yul\":11532:11547   */\n      mstore\n        /* \"#utility.yul\":11566:11570   */\n      0x24\n        /* \"#utility.yul\":11563:11564   */\n      0x00\n        /* \"#utility.yul\":11556:11571   */\n      revert\n        /* \"#utility.yul\":11583:11903   */\n    tag_53:\n        /* \"#utility.yul\":11627:11633   */\n      0x00\n        /* \"#utility.yul\":11664:11665   */\n      0x02\n        /* \"#utility.yul\":11658:11662   */\n      dup3\n        /* \"#utility.yul\":11654:11666   */\n      div\n        /* \"#utility.yul\":11644:11666   */\n      swap1\n      pop\n        /* \"#utility.yul\":11711:11712   */\n      0x01\n        /* \"#utility.yul\":11705:11709   */\n      dup3\n        /* \"#utility.yul\":11701:11713   */\n      and\n        /* \"#utility.yul\":11732:11750   */\n      dup1\n        /* \"#utility.yul\":11722:11803   */\n      tag_252\n      jumpi\n        /* \"#utility.yul\":11788:11792   */\n      0x7f\n        /* \"#utility.yul\":11780:11786   */\n      dup3\n        /* \"#utility.yul\":11776:11793   */\n      and\n        /* \"#utility.yul\":11766:11793   */\n      swap2\n      pop\n        /* \"#utility.yul\":11722:11803   */\n    tag_252:\n        /* \"#utility.yul\":11850:11852   */\n      0x20\n        /* \"#utility.yul\":11842:11848   */\n      dup3\n        /* \"#utility.yul\":11839:11853   */\n      lt\n        /* \"#utility.yul\":11819:11837   */\n      dup2\n        /* \"#utility.yul\":11816:11854   */\n      sub\n        /* \"#utility.yul\":11813:11897   */\n      tag_253\n      jumpi\n        /* \"#utility.yul\":11869:11887   */\n      tag_254\n      tag_114\n      jump\t// in\n    tag_254:\n        /* \"#utility.yul\":11813:11897   */\n    tag_253:\n        /* \"#utility.yul\":11634:11903   */\n      pop\n        /* \"#utility.yul\":11583:11903   */\n      swap2\n      swap1\n      pop\n      jump\t// out\n        /* \"#utility.yul\":11909:12130   */\n    tag_115:\n        /* \"#utility.yul\":12049:12083   */\n      0x4f6e6c79206f776e65722063616e2063616c6c20746869732066756e6374696f\n        /* \"#utility.yul\":12045:12046   */\n      0x00\n        /* \"#utility.yul\":12037:12043   */\n      dup3\n        /* \"#utility.yul\":12033:12047   */\n      add\n        /* \"#utility.yul\":12026:12084   */\n      mstore\n        /* \"#utility.yul\":12118:12122   */\n      0x6e2e000000000000000000000000000000000000000000000000000000000000\n        /* \"#utility.yul\":12113:12115   */\n      0x20\n        /* \"#utility.yul\":12105:12111   */\n      dup3\n        /* \"#utility.yul\":12101:12116   */\n      add\n        /* \"#utility.yul\":12094:12123   */\n      mstore\n        /* \"#utility.yul\":11909:12130   */\n      pop\n      jump\t// out\n        /* \"#utility.yul\":12136:12502   */\n    tag_116:\n        /* \"#utility.yul\":12278:12281   */\n      0x00\n        /* \"#utility.yul\":12299:12366   */\n      tag_257\n        /* \"#utility.yul\":12363:12365   */\n      0x22\n        /* \"#utility.yul\":12358:12361   */\n      dup4\n        /* \"#utility.yul\":12299:12366   */\n      tag_85\n      jump\t// in\n    tag_257:\n        /* \"#utility.yul\":12292:12366   */\n      swap2\n      pop\n        /* \"#utility.yul\":12375:12468   */\n      tag_258\n        /* \"#utility.yul\":12464:12467   */\n      dup3\n        /* \"#utility.yul\":12375:12468   */\n      tag_115\n      jump\t// in\n    tag_258:\n        /* \"#utility.yul\":12493:12495   */\n      0x40\n        /* \"#utility.yul\":12488:12491   */\n      dup3\n        /* \"#utility.yul\":12484:12496   */\n      add\n        /* \"#utility.yul\":12477:12496   */\n      swap1\n      pop\n        /* \"#utility.yul\":12136:12502   */\n      swap2\n      swap1\n      pop\n      jump\t// out\n        /* \"#utility.yul\":12508:12927   */\n    tag_72:\n        /* \"#utility.yul\":12674:12678   */\n      0x00\n        /* \"#utility.yul\":12712:12714   */\n      0x20\n        /* \"#utility.yul\":12701:12710   */\n      dup3\n        /* \"#utility.yul\":12697:12715   */\n      add\n        /* \"#utility.yul\":12689:12715   */\n      swap1\n      pop\n        /* \"#utility.yul\":12761:12770   */\n      dup2\n        /* \"#utility.yul\":12755:12759   */\n      dup2\n        /* \"#utility.yul\":12751:12771   */\n      sub\n        /* \"#utility.yul\":12747:12748   */\n      0x00\n        /* \"#utility.yul\":12736:12745   */\n      dup4\n        /* \"#utility.yul\":12732:12749   */\n      add\n        /* \"#utility.yul\":12725:12772   */\n      mstore\n        /* \"#utility.yul\":12789:12920   */\n      tag_260\n        /* \"#utility.yul\":12915:12919   */\n      dup2\n        /* \"#utility.yul\":12789:12920   */\n      tag_116\n      jump\t// in\n    tag_260:\n        /* \"#utility.yul\":12781:12920   */\n      swap1\n      pop\n        /* \"#utility.yul\":12508:12927   */\n      swap2\n      swap1\n      pop\n      jump\t// out\n        /* \"#utility.yul\":12933:13074   */\n    tag_117:\n        /* \"#utility.yul\":12982:12986   */\n      0x00\n        /* \"#utility.yul\":13005:13008   */\n      dup2\n        /* \"#utility.yul\":12997:13008   */\n      swap1\n      pop\n        /* \"#utility.yul\":13028:13031   */\n      dup2\n        /* \"#utility.yul\":13025:13026   */\n      0x00\n        /* \"#utility.yul\":13018:13032   */\n      mstore\n        /* \"#utility.yul\":13062:13066   */\n      0x20\n        /* \"#utility.yul\":13059:13060   */\n      0x00\n        /* \"#utility.yul\":13049:13067   */\n      keccak256\n        /* \"#utility.yul\":13041:13067   */\n      swap1\n      pop\n        /* \"#utility.yul\":12933:13074   */\n      swap2\n      swap1\n      pop\n      jump\t// out\n        /* \"#utility.yul\":13080:13173   */\n    tag_118:\n        /* \"#utility.yul\":13117:13123   */\n      0x00\n        /* \"#utility.yul\":13164:13166   */\n      0x20\n        /* \"#utility.yul\":13159:13161   */\n      0x1f\n        /* \"#utility.yul\":13152:13157   */\n      dup4\n        /* \"#utility.yul\":13148:13162   */\n      add\n        /* \"#utility.yul\":13144:13167   */\n      div\n        /* \"#utility.yul\":13134:13167   */\n      swap1\n      pop\n        /* \"#utility.yul\":13080:13173   */\n      swap2\n      swap1\n      pop\n      jump\t// out\n        /* \"#utility.yul\":13179:13286   */\n    tag_119:\n        /* \"#utility.yul\":13223:13231   */\n      0x00\n        /* \"#utility.yul\":13273:13278   */\n      dup3\n        /* \"#utility.yul\":13267:13271   */\n      dup3\n        /* \"#utility.yul\":13263:13279   */\n      shl\n        /* \"#utility.yul\":13242:13279   */\n      swap1\n      pop\n        /* \"#utility.yul\":13179:13286   */\n      swap3\n      swap2\n      pop\n      pop\n      jump\t// out\n        /* \"#utility.yul\":13292:13685   */\n    tag_120:\n        /* \"#utility.yul\":13361:13367   */\n      0x00\n        /* \"#utility.yul\":13411:13412   */\n      0x08\n        /* \"#utility.yul\":13399:13409   */\n      dup4\n        /* \"#utility.yul\":13395:13413   */\n      mul\n        /* \"#utility.yul\":13434:13531   */\n      tag_265\n        /* \"#utility.yul\":13464:13530   */\n      0xffffffffffffffffffffffffffffffffffffffffffffffffffffffffffffffff\n        /* \"#utility.yul\":13453:13462   */\n      dup3\n        /* \"#utility.yul\":13434:13531   */\n      tag_119\n      jump\t// in\n    tag_265:\n        /* \"#utility.yul\":13552:13591   */\n      tag_266\n        /* \"#utility.yul\":13582:13590   */\n      dup7\n        /* \"#utility.yul\":13571:13580   */\n      dup4\n        /* \"#utility.yul\":13552:13591   */\n      tag_119\n      jump\t// in\n    tag_266:\n        /* \"#utility.yul\":13540:13591   */\n      swap6\n      pop\n        /* \"#utility.yul\":13624:13628   */\n      dup1\n        /* \"#utility.yul\":13620:13629   */\n      not\n        /* \"#utility.yul\":13613:13618   */\n      dup5\n        /* \"#utility.yul\":13609:13630   */\n      and\n        /* \"#utility.yul\":13600:13630   */\n      swap4\n      pop\n        /* \"#utility.yul\":13673:13677   */\n      dup1\n        /* \"#utility.yul\":13663:13671   */\n      dup7\n        /* \"#utility.yul\":13659:13678   */\n      and\n        /* \"#utility.yul\":13652:13657   */\n      dup5\n        /* \"#utility.yul\":13649:13679   */\n      or\n        /* \"#utility.yul\":13639:13679   */\n      swap3\n      pop\n        /* \"#utility.yul\":13368:13685   */\n      pop\n      pop\n        /* \"#utility.yul\":13292:13685   */\n      swap4\n      swap3\n      pop\n      pop\n      pop\n      jump\t// out\n        /* \"#utility.yul\":13691:13751   */\n    tag_121:\n        /* \"#utility.yul\":13719:13722   */\n      0x00\n        /* \"#utility.yul\":13740:13745   */\n      dup2\n        /* \"#utility.yul\":13733:13745   */\n      swap1\n      pop\n        /* \"#utility.yul\":13691:13751   */\n      swap2\n      swap1\n      pop\n      jump\t// out\n        /* \"#utility.yul\":13757:13899   */\n    tag_122:\n        /* \"#utility.yul\":13807:13816   */\n      0x00\n        /* \"#utility.yul\":13840:13893   */\n      tag_269\n        /* \"#utility.yul\":13858:13892   */\n      tag_270\n        /* \"#utility.yul\":13867:13891   */\n      tag_271\n        /* \"#utility.yul\":13885:13890   */\n      dup5\n        /* \"#utility.yul\":13867:13891   */\n      tag_80\n      jump\t// in\n    tag_271:\n        /* \"#utility.yul\":13858:13892   */\n      tag_121\n      jump\t// in\n    tag_270:\n        /* \"#utility.yul\":13840:13893   */\n      tag_80\n      jump\t// in\n    tag_269:\n        /* \"#utility.yul\":13827:13893   */\n      swap1\n      pop\n        /* \"#utility.yul\":13757:13899   */\n      swap2\n      swap1\n      pop\n      jump\t// out\n        /* \"#utility.yul\":13905:13980   */\n    tag_123:\n        /* \"#utility.yul\":13948:13951   */\n      0x00\n        /* \"#utility.yul\":13969:13974   */\n      dup2\n        /* \"#utility.yul\":13962:13974   */\n      swap1\n      pop\n        /* \"#utility.yul\":13905:13980   */\n      swap2\n      swap1\n      pop\n      jump\t// out\n        /* \"#utility.yul\":13986:14255   */\n    tag_124:\n        /* \"#utility.yul\":14096:14135   */\n      tag_274\n        /* \"#utility.yul\":14127:14134   */\n      dup4\n        /* \"#utility.yul\":14096:14135   */\n      tag_122\n      jump\t// in\n    tag_274:\n        /* \"#utility.yul\":14157:14248   */\n      tag_275\n        /* \"#utility.yul\":14206:14247   */\n      tag_276\n        /* \"#utility.yul\":14230:14246   */\n      dup3\n        /* \"#utility.yul\":14206:14247   */\n      tag_123\n      jump\t// in\n    tag_276:\n        /* \"#utility.yul\":14198:14204   */\n      dup5\n        /* \"#utility.yul\":14191:14195   */\n      dup5\n        /* \"#utility.yul\":14185:14196   */\n      sload\n        /* \"#utility.yul\":14157:14248   */\n      tag_120\n      jump\t// in\n    tag_275:\n        /* \"#utility.yul\":14151:14155   */\n      dup3\n        /* \"#utility.yul\":14144:14249   */\n      sstore\n        /* \"#utility.yul\":14062:14255   */\n      pop\n        /* \"#utility.yul\":13986:14255   */\n      pop\n      pop\n      pop\n      jump\t// out\n        /* \"#utility.yul\":14261:14334   */\n    tag_125:\n        /* \"#utility.yul\":14306:14309   */\n      0x00\n        /* \"#utility.yul\":14261:14334   */\n      swap1\n      jump\t// out\n        /* \"#utility.yul\":14340:14529   */\n    tag_126:\n        /* \"#utility.yul\":14417:14449   */\n      tag_279\n      tag_125\n      jump\t// in\n    tag_279:\n        /* \"#utility.yul\":14458:14523   */\n      tag_280\n        /* \"#utility.yul\":14516:14522   */\n      dup2\n        /* \"#utility.yul\":14508:14514   */\n      dup5\n        /* \"#utility.yul\":14502:14506   */\n      dup5\n        /* \"#utility.yul\":14458:14523   */\n      tag_124\n      jump\t// in\n    tag_280:\n        /* \"#utility.yul\":14393:14529   */\n      pop\n        /* \"#utility.yul\":14340:14529   */\n      pop\n      pop\n      jump\t// out\n        /* \"#utility.yul\":14535:14721   */\n    tag_127:\n        /* \"#utility.yul\":14595:14715   */\n    tag_282:\n        /* \"#utility.yul\":14612:14615   */\n      dup2\n        /* \"#utility.yul\":14605:14610   */\n      dup2\n        /* \"#utility.yul\":14602:14616   */\n      lt\n        /* \"#utility.yul\":14595:14715   */\n      iszero\n      tag_284\n      jumpi\n        /* \"#utility.yul\":14666:14705   */\n      tag_285\n        /* \"#utility.yul\":14703:14704   */\n      0x00\n        /* \"#utility.yul\":14696:14701   */\n      dup3\n        /* \"#utility.yul\":14666:14705   */\n      tag_126\n      jump\t// in\n    tag_285:\n        /* \"#utility.yul\":14639:14640   */\n      0x01\n        /* \"#utility.yul\":14632:14637   */\n      dup2\n        /* \"#utility.yul\":14628:14641   */\n      add\n        /* \"#utility.yul\":14619:14641   */\n      swap1\n      pop\n        /* \"#utility.yul\":14595:14715   */\n      jump(tag_282)\n    tag_284:\n        /* \"#utility.yul\":14535:14721   */\n      pop\n      pop\n      jump\t// out\n        /* \"#utility.yul\":14727:15270   */\n    tag_128:\n        /* \"#utility.yul\":14828:14830   */\n      0x1f\n        /* \"#utility.yul\":14823:14826   */\n      dup3\n        /* \"#utility.yul\":14820:14831   */\n      gt\n        /* \"#utility.yul\":14817:15263   */\n      iszero\n      tag_287\n      jumpi\n        /* \"#utility.yul\":14862:14900   */\n      tag_288\n        /* \"#utility.yul\":14894:14899   */\n      dup2\n        /* \"#utility.yul\":14862:14900   */\n      tag_117\n      jump\t// in\n    tag_288:\n        /* \"#utility.yul\":14946:14975   */\n      tag_289\n        /* \"#utility.yul\":14964:14974   */\n      dup5\n        /* \"#utility.yul\":14946:14975   */\n      tag_118\n      jump\t// in\n    tag_289:\n        /* \"#utility.yul\":14936:14944   */\n      dup2\n        /* \"#utility.yul\":14932:14976   */\n      add\n        /* \"#utility.yul\":15129:15131   */\n      0x20\n        /* \"#utility.yul\":15117:15127   */\n      dup6\n        /* \"#utility.yul\":15114:15132   */\n      lt\n        /* \"#utility.yul\":15111:15160   */\n      iszero\n      tag_290\n      jumpi\n        /* \"#utility.yul\":15150:15158   */\n      dup2\n        /* \"#utility.yul\":15135:15158   */\n      swap1\n      pop\n        /* \"#utility.yul\":15111:15160   */\n    tag_290:\n        /* \"#utility.yul\":15173:15253   */\n      tag_291\n        /* \"#utility.yul\":15229:15251   */\n      tag_292\n        /* \"#utility.yul\":15247:15250   */\n      dup6\n        /* \"#utility.yul\":15229:15251   */\n      tag_118\n      jump\t// in\n    tag_292:\n        /* \"#utility.yul\":15219:15227   */\n      dup4\n        /* \"#utility.yul\":15215:15252   */\n      add\n        /* \"#utility.yul\":15202:15213   */\n      dup3\n        /* \"#utility.yul\":15173:15253   */\n      tag_127\n      jump\t// in\n    tag_291:\n        /* \"#utility.yul\":14832:15263   */\n      pop\n      pop\n        /* \"#utility.yul\":14817:15263   */\n    tag_287:\n        /* \"#utility.yul\":14727:15270   */\n      pop\n      pop\n      pop\n      jump\t// out\n        /* \"#utility.yul\":15276:15393   */\n    tag_129:\n        /* \"#utility.yul\":15330:15338   */\n      0x00\n        /* \"#utility.yul\":15380:15385   */\n      dup3\n        /* \"#utility.yul\":15374:15378   */\n      dup3\n        /* \"#utility.yul\":15370:15386   */\n      shr\n        /* \"#utility.yul\":15349:15386   */\n      swap1\n      pop\n        /* \"#utility.yul\":15276:15393   */\n      swap3\n      swap2\n      pop\n      pop\n      jump\t// out\n        /* \"#utility.yul\":15399:15568   */\n    tag_130:\n        /* \"#utility.yul\":15443:15449   */\n      0x00\n        /* \"#utility.yul\":15476:15527   */\n      tag_295\n        /* \"#utility.yul\":15524:15525   */\n      0x00\n        /* \"#utility.yul\":15520:15526   */\n      not\n        /* \"#utility.yul\":15512:15517   */\n      dup5\n        /* \"#utility.yul\":15509:15510   */\n      0x08\n        /* \"#utility.yul\":15505:15518   */\n      mul\n        /* \"#utility.yul\":15476:15527   */\n      tag_129\n      jump\t// in\n    tag_295:\n        /* \"#utility.yul\":15472:15528   */\n      not\n        /* \"#utility.yul\":15557:15561   */\n      dup1\n        /* \"#utility.yul\":15551:15555   */\n      dup4\n        /* \"#utility.yul\":15547:15562   */\n      and\n        /* \"#utility.yul\":15537:15562   */\n      swap2\n      pop\n        /* \"#utility.yul\":15450:15568   */\n      pop\n        /* \"#utility.yul\":15399:15568   */\n      swap3\n      swap2\n      pop\n      pop\n      jump\t// out\n        /* \"#utility.yul\":15573:15868   */\n    tag_131:\n        /* \"#utility.yul\":15649:15653   */\n      0x00\n        /* \"#utility.yul\":15795:15824   */\n      tag_297\n        /* \"#utility.yul\":15820:15823   */\n      dup4\n        /* \"#utility.yul\":15814:15818   */\n      dup4\n        /* \"#utility.yul\":15795:15824   */\n      tag_130\n      jump\t// in\n    tag_297:\n        /* \"#utility.yul\":15787:15824   */\n      swap2\n      pop\n        /* \"#utility.yul\":15857:15860   */\n      dup3\n        /* \"#utility.yul\":15854:15855   */\n      0x02\n        /* \"#utility.yul\":15850:15861   */\n      mul\n        /* \"#utility.yul\":15844:15848   */\n      dup3\n        /* \"#utility.yul\":15841:15862   */\n      or\n        /* \"#utility.yul\":15833:15862   */\n      swap1\n      pop\n        /* \"#utility.yul\":15573:15868   */\n      swap3\n      swap2\n      pop\n      pop\n      jump\t// out\n        /* \"#utility.yul\":15873:17268   */\n    tag_75:\n        /* \"#utility.yul\":15990:16027   */\n      tag_299\n        /* \"#utility.yul\":16023:16026   */\n      dup3\n        /* \"#utility.yul\":15990:16027   */\n      tag_84\n      jump\t// in\n    tag_299:\n        /* \"#utility.yul\":16092:16110   */\n      0xffffffffffffffff\n        /* \"#utility.yul\":16084:16090   */\n      dup2\n        /* \"#utility.yul\":16081:16111   */\n      gt\n        /* \"#utility.yul\":16078:16134   */\n      iszero\n      tag_300\n      jumpi\n        /* \"#utility.yul\":16114:16132   */\n      tag_301\n      tag_95\n      jump\t// in\n    tag_301:\n        /* \"#utility.yul\":16078:16134   */\n    tag_300:\n        /* \"#utility.yul\":16158:16196   */\n      tag_302\n        /* \"#utility.yul\":16190:16194   */\n      dup3\n        /* \"#utility.yul\":16184:16195   */\n      sload\n        /* \"#utility.yul\":16158:16196   */\n      tag_53\n      jump\t// in\n    tag_302:\n        /* \"#utility.yul\":16243:16310   */\n      tag_303\n        /* \"#utility.yul\":16303:16309   */\n      dup3\n        /* \"#utility.yul\":16295:16301   */\n      dup3\n        /* \"#utility.yul\":16289:16293   */\n      dup6\n        /* \"#utility.yul\":16243:16310   */\n      tag_128\n      jump\t// in\n    tag_303:\n        /* \"#utility.yul\":16337:16338   */\n      0x00\n        /* \"#utility.yul\":16361:16365   */\n      0x20\n        /* \"#utility.yul\":16348:16365   */\n      swap1\n      pop\n        /* \"#utility.yul\":16393:16395   */\n      0x1f\n        /* \"#utility.yul\":16385:16391   */\n      dup4\n        /* \"#utility.yul\":16382:16396   */\n      gt\n        /* \"#utility.yul\":16410:16411   */\n      0x01\n        /* \"#utility.yul\":16405:17023   */\n      dup2\n      eq\n      tag_305\n      jumpi\n        /* \"#utility.yul\":17067:17068   */\n      0x00\n        /* \"#utility.yul\":17084:17090   */\n      dup5\n        /* \"#utility.yul\":17081:17158   */\n      iszero\n      tag_306\n      jumpi\n        /* \"#utility.yul\":17133:17142   */\n      dup3\n        /* \"#utility.yul\":17128:17131   */\n      dup8\n        /* \"#utility.yul\":17124:17143   */\n      add\n        /* \"#utility.yul\":17118:17144   */\n      mload\n        /* \"#utility.yul\":17109:17144   */\n      swap1\n      pop\n        /* \"#utility.yul\":17081:17158   */\n    tag_306:\n        /* \"#utility.yul\":17184:17251   */\n      tag_307\n        /* \"#utility.yul\":17244:17250   */\n      dup6\n        /* \"#utility.yul\":17237:17242   */\n      dup3\n        /* \"#utility.yul\":17184:17251   */\n      tag_131\n      jump\t// in\n    tag_307:\n        /* \"#utility.yul\":17178:17182   */\n      dup7\n        /* \"#utility.yul\":17171:17252   */\n      sstore\n        /* \"#utility.yul\":17040:17262   */\n      pop\n        /* \"#utility.yul\":16375:17262   */\n      jump(tag_304)\n        /* \"#utility.yul\":16405:17023   */\n    tag_305:\n        /* \"#utility.yul\":16457:16461   */\n      0x1f\n        /* \"#utility.yul\":16453:16462   */\n      not\n        /* \"#utility.yul\":16445:16451   */\n      dup5\n        /* \"#utility.yul\":16441:16463   */\n      and\n        /* \"#utility.yul\":16491:16528   */\n      tag_308\n        /* \"#utility.yul\":16523:16527   */\n      dup7\n        /* \"#utility.yul\":16491:16528   */\n      tag_117\n      jump\t// in\n    tag_308:\n        /* \"#utility.yul\":16550:16551   */\n      0x00\n        /* \"#utility.yul\":16564:16772   */\n    tag_309:\n        /* \"#utility.yul\":16578:16585   */\n      dup3\n        /* \"#utility.yul\":16575:16576   */\n      dup2\n        /* \"#utility.yul\":16572:16586   */\n      lt\n        /* \"#utility.yul\":16564:16772   */\n      iszero\n      tag_311\n      jumpi\n        /* \"#utility.yul\":16657:16666   */\n      dup5\n        /* \"#utility.yul\":16652:16655   */\n      dup10\n        /* \"#utility.yul\":16648:16667   */\n      add\n        /* \"#utility.yul\":16642:16668   */\n      mload\n        /* \"#utility.yul\":16634:16640   */\n      dup3\n        /* \"#utility.yul\":16627:16669   */\n      sstore\n        /* \"#utility.yul\":16708:16709   */\n      0x01\n        /* \"#utility.yul\":16700:16706   */\n      dup3\n        /* \"#utility.yul\":16696:16710   */\n      add\n        /* \"#utility.yul\":16686:16710   */\n      swap2\n      pop\n        /* \"#utility.yul\":16755:16757   */\n      0x20\n        /* \"#utility.yul\":16744:16753   */\n      dup6\n        /* \"#utility.yul\":16740:16758   */\n      add\n        /* \"#utility.yul\":16727:16758   */\n      swap5\n      pop\n        /* \"#utility.yul\":16601:16605   */\n      0x20\n        /* \"#utility.yul\":16598:16599   */\n      dup2\n        /* \"#utility.yul\":16594:16606   */\n      add\n        /* \"#utility.yul\":16589:16606   */\n      swap1\n      pop\n        /* \"#utility.yul\":16564:16772   */\n      jump(tag_309)\n    tag_311:\n        /* \"#utility.yul\":16800:16806   */\n      dup7\n        /* \"#utility.yul\":16791:16798   */\n      dup4\n        /* \"#utility.yul\":16788:16807   */\n      lt\n        /* \"#utility.yul\":16785:16964   */\n      iszero\n      tag_312\n      jumpi\n        /* \"#utility.yul\":16858:16867   */\n      dup5\n        /* \"#utility.yul\":16853:16856   */\n      dup10\n        /* \"#utility.yul\":16849:16868   */\n      add\n        /* \"#utility.yul\":16843:16869   */\n      mload\n        /* \"#utility.yul\":16901:16949   */\n      tag_313\n        /* \"#utility.yul\":16943:16947   */\n      0x1f\n        /* \"#utility.yul\":16935:16941   */\n      dup10\n        /* \"#utility.yul\":16931:16948   */\n      and\n        /* \"#utility.yul\":16920:16929   */\n      dup3\n        /* \"#utility.yul\":16901:16949   */\n      tag_130\n      jump\t// in\n    tag_313:\n        /* \"#utility.yul\":16893:16899   */\n      dup4\n        /* \"#utility.yul\":16886:16950   */\n      sstore\n        /* \"#utility.yul\":16808:16964   */\n      pop\n        /* \"#utility.yul\":16785:16964   */\n    tag_312:\n        /* \"#utility.yul\":17010:17011   */\n      0x01\n        /* \"#utility.yul\":17006:17007   */\n      0x02\n        /* \"#utility.yul\":16998:17004   */\n      dup9\n        /* \"#utility.yul\":16994:17008   */\n      mul\n        /* \"#utility.yul\":16990:17012   */\n      add\n        /* \"#utility.yul\":16984:16988   */\n      dup9\n        /* \"#utility.yul\":16977:17013   */\n      sstore\n        /* \"#utility.yul\":16412:17023   */\n      pop\n      pop\n      pop\n        /* \"#utility.yul\":16375:17262   */\n    tag_304:\n      pop\n        /* \"#utility.yul\":15965:17268   */\n      pop\n      pop\n      pop\n        /* \"#utility.yul\":15873:17268   */\n      pop\n      pop\n      jump\t// out\n\n    auxdata: 0xa26469706673582212200fe3bab5fa86ecbe45cd2ea7a09208b5cdea595ba15fe5420def4038e9cc799964736f6c63430008180033\n}\n",
				"bytecode": {
					"linkReferences": {},
					"object": "608060405234801561000f575f80fd5b50335f806101000a81548173ffffffffffffffffffffffffffffffffffffffff021916908373ffffffffffffffffffffffffffffffffffffffff160217905550610f4c8061005c5f395ff3fe608060405234801561000f575f80fd5b506004361061007b575f3560e01c80633866965c116100595780633866965c146100fd578063462e91ec1461011b5780638da5cb5b14610137578063a3ec138d146101555761007b565b80630121b93f1461007f5780633477ee2e1461009b57806335b8e820146100cd575b5f80fd5b6100996004803603810190610094919061065f565b610185565b005b6100b560048036038101906100b0919061065f565b6102d8565b6040516100c493929190610723565b60405180910390f35b6100e760048036038101906100e2919061065f565b610384565b6040516100f49190610803565b60405180910390f35b610105610499565b6040516101129190610823565b60405180910390f35b61013560048036038101906101309190610968565b6104a5565b005b61013f6105bc565b60405161014c91906109ee565b60405180910390f35b61016f600480360381019061016a9190610a31565b6105df565b60405161017c9190610a76565b60405180910390f35b60035f3373ffffffffffffffffffffffffffffffffffffffff1673ffffffffffffffffffffffffffffffffffffffff1681526020019081526020015f205f9054906101000a900460ff161561020f576040517f08c379a000000000000000000000000000000000000000000000000000000000815260040161020690610ad9565b60405180910390fd5b6002805490508110610256576040517f08c379a000000000000000000000000000000000000000000000000000000000815260040161024d90610b41565b60405180910390fd5b600160035f3373ffffffffffffffffffffffffffffffffffffffff1673ffffffffffffffffffffffffffffffffffffffff1681526020019081526020015f205f6101000a81548160ff0219169083151502179055506001805f8381526020019081526020015f206002015f8282546102ce9190610b8c565b9250508190555050565b6001602052805f5260405f205f91509050805f0154908060010180546102fd90610bec565b80601f016020809104026020016040519081016040528092919081815260200182805461032990610bec565b80156103745780601f1061034b57610100808354040283529160200191610374565b820191905f5260205f20905b81548152906001019060200180831161035757829003601f168201915b5050505050908060020154905083565b61038c6105fc565b60028054905082106103d3576040517f08c379a00000000000000000000000000000000000000000000000000000000081526004016103ca90610b41565b60405180910390fd5b60015f8381526020019081526020015f206040518060600160405290815f820154815260200160018201805461040890610bec565b80601f016020809104026020016040519081016040528092919081815260200182805461043490610bec565b801561047f5780601f106104565761010080835404028352916020019161047f565b820191905f5260205f20905b81548152906001019060200180831161046257829003601f168201915b505050505081526020016002820154815250509050919050565b5f600280549050905090565b5f8054906101000a900473ffffffffffffffffffffffffffffffffffffffff1673ffffffffffffffffffffffffffffffffffffffff163373ffffffffffffffffffffffffffffffffffffffff1614610532576040517f08c379a000000000000000000000000000000000000000000000000000000000815260040161052990610c8c565b60405180910390fd5b5f600280549050905060405180606001604052808281526020018381526020015f81525060015f8381526020019081526020015f205f820151815f015560208201518160010190816105849190610e47565b5060408201518160020155905050600281908060018154018082558091505060019003905f5260205f20015f90919091909150555050565b5f8054906101000a900473ffffffffffffffffffffffffffffffffffffffff1681565b6003602052805f5260405f205f915054906101000a900460ff1681565b60405180606001604052805f8152602001606081526020015f81525090565b5f604051905090565b5f80fd5b5f80fd5b5f819050919050565b61063e8161062c565b8114610648575f80fd5b50565b5f8135905061065981610635565b92915050565b5f6020828403121561067457610673610624565b5b5f6106818482850161064b565b91505092915050565b6106938161062c565b82525050565b5f81519050919050565b5f82825260208201905092915050565b5f5b838110156106d05780820151818401526020810190506106b5565b5f8484015250505050565b5f601f19601f8301169050919050565b5f6106f582610699565b6106ff81856106a3565b935061070f8185602086016106b3565b610718816106db565b840191505092915050565b5f6060820190506107365f83018661068a565b818103602083015261074881856106eb565b9050610757604083018461068a565b949350505050565b6107688161062c565b82525050565b5f82825260208201905092915050565b5f61078882610699565b610792818561076e565b93506107a28185602086016106b3565b6107ab816106db565b840191505092915050565b5f606083015f8301516107cb5f86018261075f565b50602083015184820360208601526107e3828261077e565b91505060408301516107f8604086018261075f565b508091505092915050565b5f6020820190508181035f83015261081b81846107b6565b905092915050565b5f6020820190506108365f83018461068a565b92915050565b5f80fd5b5f80fd5b7f4e487b71000000000000000000000000000000000000000000000000000000005f52604160045260245ffd5b61087a826106db565b810181811067ffffffffffffffff8211171561089957610898610844565b5b80604052505050565b5f6108ab61061b565b90506108b78282610871565b919050565b5f67ffffffffffffffff8211156108d6576108d5610844565b5b6108df826106db565b9050602081019050919050565b828183375f83830152505050565b5f61090c610907846108bc565b6108a2565b90508281526020810184848401111561092857610927610840565b5b6109338482856108ec565b509392505050565b5f82601f83011261094f5761094e61083c565b5b813561095f8482602086016108fa565b91505092915050565b5f6020828403121561097d5761097c610624565b5b5f82013567ffffffffffffffff81111561099a57610999610628565b5b6109a68482850161093b565b91505092915050565b5f73ffffffffffffffffffffffffffffffffffffffff82169050919050565b5f6109d8826109af565b9050919050565b6109e8816109ce565b82525050565b5f602082019050610a015f8301846109df565b92915050565b610a10816109ce565b8114610a1a575f80fd5b50565b5f81359050610a2b81610a07565b92915050565b5f60208284031215610a4657610a45610624565b5b5f610a5384828501610a1d565b91505092915050565b5f8115159050919050565b610a7081610a5c565b82525050565b5f602082019050610a895f830184610a67565b92915050565b7f596f75206861766520616c726561647920766f7465642e0000000000000000005f82015250565b5f610ac36017836106a3565b9150610ace82610a8f565b602082019050919050565b5f6020820190508181035f830152610af081610ab7565b9050919050565b7f4e6f7420612076616c69642063616e6469646174652049442e000000000000005f82015250565b5f610b2b6019836106a3565b9150610b3682610af7565b602082019050919050565b5f6020820190508181035f830152610b5881610b1f565b9050919050565b7f4e487b71000000000000000000000000000000000000000000000000000000005f52601160045260245ffd5b5f610b968261062c565b9150610ba18361062c565b9250828201905080821115610bb957610bb8610b5f565b5b92915050565b7f4e487b71000000000000000000000000000000000000000000000000000000005f52602260045260245ffd5b5f6002820490506001821680610c0357607f821691505b602082108103610c1657610c15610bbf565b5b50919050565b7f4f6e6c79206f776e65722063616e2063616c6c20746869732066756e6374696f5f8201527f6e2e000000000000000000000000000000000000000000000000000000000000602082015250565b5f610c766022836106a3565b9150610c8182610c1c565b604082019050919050565b5f6020820190508181035f830152610ca381610c6a565b9050919050565b5f819050815f5260205f209050919050565b5f6020601f8301049050919050565b5f82821b905092915050565b5f60088302610d067fffffffffffffffffffffffffffffffffffffffffffffffffffffffffffffffff82610ccb565b610d108683610ccb565b95508019841693508086168417925050509392505050565b5f819050919050565b5f610d4b610d46610d418461062c565b610d28565b61062c565b9050919050565b5f819050919050565b610d6483610d31565b610d78610d7082610d52565b848454610cd7565b825550505050565b5f90565b610d8c610d80565b610d97818484610d5b565b505050565b5b81811015610dba57610daf5f82610d84565b600181019050610d9d565b5050565b601f821115610dff57610dd081610caa565b610dd984610cbc565b81016020851015610de8578190505b610dfc610df485610cbc565b830182610d9c565b50505b505050565b5f82821c905092915050565b5f610e1f5f1984600802610e04565b1980831691505092915050565b5f610e378383610e10565b9150826002028217905092915050565b610e5082610699565b67ffffffffffffffff811115610e6957610e68610844565b5b610e738254610bec565b610e7e828285610dbe565b5f60209050601f831160018114610eaf575f8415610e9d578287015190505b610ea78582610e2c565b865550610f0e565b601f198416610ebd86610caa565b5f5b82811015610ee457848901518255600182019150602085019450602081019050610ebf565b86831015610f015784890151610efd601f891682610e10565b8355505b6001600288020188555050505b50505050505056fea26469706673582212200fe3bab5fa86ecbe45cd2ea7a09208b5cdea595ba15fe5420def4038e9cc799964736f6c63430008180033",
					"opcodes": "PUSH1 0x80 PUSH1 0x40 MSTORE CALLVALUE DUP1 ISZERO PUSH2 0xF JUMPI PUSH0 DUP1 REVERT JUMPDEST POP CALLER PUSH0 DUP1 PUSH2 0x100 EXP DUP2 SLOAD DUP2 PUSH20 0xFFFFFFFFFFFFFFFFFFFFFFFFFFFFFFFFFFFFFFFF MUL NOT AND SWAP1 DUP4 PUSH20 0xFFFFFFFFFFFFFFFFFFFFFFFFFFFFFFFFFFFFFFFF AND MUL OR SWAP1 SSTORE POP PUSH2 0xF4C DUP1 PUSH2 0x5C PUSH0 CODECOPY PUSH0 RETURN INVALID PUSH1 0x80 PUSH1 0x40 MSTORE CALLVALUE DUP1 ISZERO PUSH2 0xF JUMPI PUSH0 DUP1 REVERT JUMPDEST POP PUSH1 0x4 CALLDATASIZE LT PUSH2 0x7B JUMPI PUSH0 CALLDATALOAD PUSH1 0xE0 SHR DUP1 PUSH4 0x3866965C GT PUSH2 0x59 JUMPI DUP1 PUSH4 0x3866965C EQ PUSH2 0xFD JUMPI DUP1 PUSH4 0x462E91EC EQ PUSH2 0x11B JUMPI DUP1 PUSH4 0x8DA5CB5B EQ PUSH2 0x137 JUMPI DUP1 PUSH4 0xA3EC138D EQ PUSH2 0x155 JUMPI PUSH2 0x7B JUMP JUMPDEST DUP1 PUSH4 0x121B93F EQ PUSH2 0x7F JUMPI DUP1 PUSH4 0x3477EE2E EQ PUSH2 0x9B JUMPI DUP1 PUSH4 0x35B8E820 EQ PUSH2 0xCD JUMPI JUMPDEST PUSH0 DUP1 REVERT JUMPDEST PUSH2 0x99 PUSH1 0x4 DUP1 CALLDATASIZE SUB DUP2 ADD SWAP1 PUSH2 0x94 SWAP2 SWAP1 PUSH2 0x65F JUMP JUMPDEST PUSH2 0x185 JUMP JUMPDEST STOP JUMPDEST PUSH2 0xB5 PUSH1 0x4 DUP1 CALLDATASIZE SUB DUP2 ADD SWAP1 PUSH2 0xB0 SWAP2 SWAP1 PUSH2 0x65F JUMP JUMPDEST PUSH2 0x2D8 JUMP JUMPDEST PUSH1 0x40 MLOAD PUSH2 0xC4 SWAP4 SWAP3 SWAP2 SWAP1 PUSH2 0x723 JUMP JUMPDEST PUSH1 0x40 MLOAD DUP1 SWAP2 SUB SWAP1 RETURN JUMPDEST PUSH2 0xE7 PUSH1 0x4 DUP1 CALLDATASIZE SUB DUP2 ADD SWAP1 PUSH2 0xE2 SWAP2 SWAP1 PUSH2 0x65F JUMP JUMPDEST PUSH2 0x384 JUMP JUMPDEST PUSH1 0x40 MLOAD PUSH2 0xF4 SWAP2 SWAP1 PUSH2 0x803 JUMP JUMPDEST PUSH1 0x40 MLOAD DUP1 SWAP2 SUB SWAP1 RETURN JUMPDEST PUSH2 0x105 PUSH2 0x499 JUMP JUMPDEST PUSH1 0x40 MLOAD PUSH2 0x112 SWAP2 SWAP1 PUSH2 0x823 JUMP JUMPDEST PUSH1 0x40 MLOAD DUP1 SWAP2 SUB SWAP1 RETURN JUMPDEST PUSH2 0x135 PUSH1 0x4 DUP1 CALLDATASIZE SUB DUP2 ADD SWAP1 PUSH2 0x130 SWAP2 SWAP1 PUSH2 0x968 JUMP JUMPDEST PUSH2 0x4A5 JUMP JUMPDEST STOP JUMPDEST PUSH2 0x13F PUSH2 0x5BC JUMP JUMPDEST PUSH1 0x40 MLOAD PUSH2 0x14C SWAP2 SWAP1 PUSH2 0x9EE JUMP JUMPDEST PUSH1 0x40 MLOAD DUP1 SWAP2 SUB SWAP1 RETURN JUMPDEST PUSH2 0x16F PUSH1 0x4 DUP1 CALLDATASIZE SUB DUP2 ADD SWAP1 PUSH2 0x16A SWAP2 SWAP1 PUSH2 0xA31 JUMP JUMPDEST PUSH2 0x5DF JUMP JUMPDEST PUSH1 0x40 MLOAD PUSH2 0x17C SWAP2 SWAP1 PUSH2 0xA76 JUMP JUMPDEST PUSH1 0x40 MLOAD DUP1 SWAP2 SUB SWAP1 RETURN JUMPDEST PUSH1 0x3 PUSH0 CALLER PUSH20 0xFFFFFFFFFFFFFFFFFFFFFFFFFFFFFFFFFFFFFFFF AND PUSH20 0xFFFFFFFFFFFFFFFFFFFFFFFFFFFFFFFFFFFFFFFF AND DUP2 MSTORE PUSH1 0x20 ADD SWAP1 DUP2 MSTORE PUSH1 0x20 ADD PUSH0 KECCAK256 PUSH0 SWAP1 SLOAD SWAP1 PUSH2 0x100 EXP SWAP1 DIV PUSH1 0xFF AND ISZERO PUSH2 0x20F JUMPI PUSH1 0x40 MLOAD PUSH32 0x8C379A000000000000000000000000000000000000000000000000000000000 DUP2 MSTORE PUSH1 0x4 ADD PUSH2 0x206 SWAP1 PUSH2 0xAD9 JUMP JUMPDEST PUSH1 0x40 MLOAD DUP1 SWAP2 SUB SWAP1 REVERT JUMPDEST PUSH1 0x2 DUP1 SLOAD SWAP1 POP DUP2 LT PUSH2 0x256 JUMPI PUSH1 0x40 MLOAD PUSH32 0x8C379A000000000000000000000000000000000000000000000000000000000 DUP2 MSTORE PUSH1 0x4 ADD PUSH2 0x24D SWAP1 PUSH2 0xB41 JUMP JUMPDEST PUSH1 0x40 MLOAD DUP1 SWAP2 SUB SWAP1 REVERT JUMPDEST PUSH1 0x1 PUSH1 0x3 PUSH0 CALLER PUSH20 0xFFFFFFFFFFFFFFFFFFFFFFFFFFFFFFFFFFFFFFFF AND PUSH20 0xFFFFFFFFFFFFFFFFFFFFFFFFFFFFFFFFFFFFFFFF AND DUP2 MSTORE PUSH1 0x20 ADD SWAP1 DUP2 MSTORE PUSH1 0x20 ADD PUSH0 KECCAK256 PUSH0 PUSH2 0x100 EXP DUP2 SLOAD DUP2 PUSH1 0xFF MUL NOT AND SWAP1 DUP4 ISZERO ISZERO MUL OR SWAP1 SSTORE POP PUSH1 0x1 DUP1 PUSH0 DUP4 DUP2 MSTORE PUSH1 0x20 ADD SWAP1 DUP2 MSTORE PUSH1 0x20 ADD PUSH0 KECCAK256 PUSH1 0x2 ADD PUSH0 DUP3 DUP3 SLOAD PUSH2 0x2CE SWAP2 SWAP1 PUSH2 0xB8C JUMP JUMPDEST SWAP3 POP POP DUP2 SWAP1 SSTORE POP POP JUMP JUMPDEST PUSH1 0x1 PUSH1 0x20 MSTORE DUP1 PUSH0 MSTORE PUSH1 0x40 PUSH0 KECCAK256 PUSH0 SWAP2 POP SWAP1 POP DUP1 PUSH0 ADD SLOAD SWAP1 DUP1 PUSH1 0x1 ADD DUP1 SLOAD PUSH2 0x2FD SWAP1 PUSH2 0xBEC JUMP JUMPDEST DUP1 PUSH1 0x1F ADD PUSH1 0x20 DUP1 SWAP2 DIV MUL PUSH1 0x20 ADD PUSH1 0x40 MLOAD SWAP1 DUP2 ADD PUSH1 0x40 MSTORE DUP1 SWAP3 SWAP2 SWAP1 DUP2 DUP2 MSTORE PUSH1 0x20 ADD DUP3 DUP1 SLOAD PUSH2 0x329 SWAP1 PUSH2 0xBEC JUMP JUMPDEST DUP1 ISZERO PUSH2 0x374 JUMPI DUP1 PUSH1 0x1F LT PUSH2 0x34B JUMPI PUSH2 0x100 DUP1 DUP4 SLOAD DIV MUL DUP4 MSTORE SWAP2 PUSH1 0x20 ADD SWAP2 PUSH2 0x374 JUMP JUMPDEST DUP3 ADD SWAP2 SWAP1 PUSH0 MSTORE PUSH1 0x20 PUSH0 KECCAK256 SWAP1 JUMPDEST DUP2 SLOAD DUP2 MSTORE SWAP1 PUSH1 0x1 ADD SWAP1 PUSH1 0x20 ADD DUP1 DUP4 GT PUSH2 0x357 JUMPI DUP3 SWAP1 SUB PUSH1 0x1F AND DUP3 ADD SWAP2 JUMPDEST POP POP POP POP POP SWAP1 DUP1 PUSH1 0x2 ADD SLOAD SWAP1 POP DUP4 JUMP JUMPDEST PUSH2 0x38C PUSH2 0x5FC JUMP JUMPDEST PUSH1 0x2 DUP1 SLOAD SWAP1 POP DUP3 LT PUSH2 0x3D3 JUMPI PUSH1 0x40 MLOAD PUSH32 0x8C379A000000000000000000000000000000000000000000000000000000000 DUP2 MSTORE PUSH1 0x4 ADD PUSH2 0x3CA SWAP1 PUSH2 0xB41 JUMP JUMPDEST PUSH1 0x40 MLOAD DUP1 SWAP2 SUB SWAP1 REVERT JUMPDEST PUSH1 0x1 PUSH0 DUP4 DUP2 MSTORE PUSH1 0x20 ADD SWAP1 DUP2 MSTORE PUSH1 0x20 ADD PUSH0 KECCAK256 PUSH1 0x40 MLOAD DUP1 PUSH1 0x60 ADD PUSH1 0x40 MSTORE SWAP1 DUP2 PUSH0 DUP3 ADD SLOAD DUP2 MSTORE PUSH1 0x20 ADD PUSH1 0x1 DUP3 ADD DUP1 SLOAD PUSH2 0x408 SWAP1 PUSH2 0xBEC JUMP JUMPDEST DUP1 PUSH1 0x1F ADD PUSH1 0x20 DUP1 SWAP2 DIV MUL PUSH1 0x20 ADD PUSH1 0x40 MLOAD SWAP1 DUP2 ADD PUSH1 0x40 MSTORE DUP1 SWAP3 SWAP2 SWAP1 DUP2 DUP2 MSTORE PUSH1 0x20 ADD DUP3 DUP1 SLOAD PUSH2 0x434 SWAP1 PUSH2 0xBEC JUMP JUMPDEST DUP1 ISZERO PUSH2 0x47F JUMPI DUP1 PUSH1 0x1F LT PUSH2 0x456 JUMPI PUSH2 0x100 DUP1 DUP4 SLOAD DIV MUL DUP4 MSTORE SWAP2 PUSH1 0x20 ADD SWAP2 PUSH2 0x47F JUMP JUMPDEST DUP3 ADD SWAP2 SWAP1 PUSH0 MSTORE PUSH1 0x20 PUSH0 KECCAK256 SWAP1 JUMPDEST DUP2 SLOAD DUP2 MSTORE SWAP1 PUSH1 0x1 ADD SWAP1 PUSH1 0x20 ADD DUP1 DUP4 GT PUSH2 0x462 JUMPI DUP3 SWAP1 SUB PUSH1 0x1F AND DUP3 ADD SWAP2 JUMPDEST POP POP POP POP POP DUP2 MSTORE PUSH1 0x20 ADD PUSH1 0x2 DUP3 ADD SLOAD DUP2 MSTORE POP POP SWAP1 POP SWAP2 SWAP1 POP JUMP JUMPDEST PUSH0 PUSH1 0x2 DUP1 SLOAD SWAP1 POP SWAP1 POP SWAP1 JUMP JUMPDEST PUSH0 DUP1 SLOAD SWAP1 PUSH2 0x100 EXP SWAP1 DIV PUSH20 0xFFFFFFFFFFFFFFFFFFFFFFFFFFFFFFFFFFFFFFFF AND PUSH20 0xFFFFFFFFFFFFFFFFFFFFFFFFFFFFFFFFFFFFFFFF AND CALLER PUSH20 0xFFFFFFFFFFFFFFFFFFFFFFFFFFFFFFFFFFFFFFFF AND EQ PUSH2 0x532 JUMPI PUSH1 0x40 MLOAD PUSH32 0x8C379A000000000000000000000000000000000000000000000000000000000 DUP2 MSTORE PUSH1 0x4 ADD PUSH2 0x529 SWAP1 PUSH2 0xC8C JUMP JUMPDEST PUSH1 0x40 MLOAD DUP1 SWAP2 SUB SWAP1 REVERT JUMPDEST PUSH0 PUSH1 0x2 DUP1 SLOAD SWAP1 POP SWAP1 POP PUSH1 0x40 MLOAD DUP1 PUSH1 0x60 ADD PUSH1 0x40 MSTORE DUP1 DUP3 DUP2 MSTORE PUSH1 0x20 ADD DUP4 DUP2 MSTORE PUSH1 0x20 ADD PUSH0 DUP2 MSTORE POP PUSH1 0x1 PUSH0 DUP4 DUP2 MSTORE PUSH1 0x20 ADD SWAP1 DUP2 MSTORE PUSH1 0x20 ADD PUSH0 KECCAK256 PUSH0 DUP3 ADD MLOAD DUP2 PUSH0 ADD SSTORE PUSH1 0x20 DUP3 ADD MLOAD DUP2 PUSH1 0x1 ADD SWAP1 DUP2 PUSH2 0x584 SWAP2 SWAP1 PUSH2 0xE47 JUMP JUMPDEST POP PUSH1 0x40 DUP3 ADD MLOAD DUP2 PUSH1 0x2 ADD SSTORE SWAP1 POP POP PUSH1 0x2 DUP2 SWAP1 DUP1 PUSH1 0x1 DUP2 SLOAD ADD DUP1 DUP3 SSTORE DUP1 SWAP2 POP POP PUSH1 0x1 SWAP1 SUB SWAP1 PUSH0 MSTORE PUSH1 0x20 PUSH0 KECCAK256 ADD PUSH0 SWAP1 SWAP2 SWAP1 SWAP2 SWAP1 SWAP2 POP SSTORE POP POP JUMP JUMPDEST PUSH0 DUP1 SLOAD SWAP1 PUSH2 0x100 EXP SWAP1 DIV PUSH20 0xFFFFFFFFFFFFFFFFFFFFFFFFFFFFFFFFFFFFFFFF AND DUP2 JUMP JUMPDEST PUSH1 0x3 PUSH1 0x20 MSTORE DUP1 PUSH0 MSTORE PUSH1 0x40 PUSH0 KECCAK256 PUSH0 SWAP2 POP SLOAD SWAP1 PUSH2 0x100 EXP SWAP1 DIV PUSH1 0xFF AND DUP2 JUMP JUMPDEST PUSH1 0x40 MLOAD DUP1 PUSH1 0x60 ADD PUSH1 0x40 MSTORE DUP1 PUSH0 DUP2 MSTORE PUSH1 0x20 ADD PUSH1 0x60 DUP2 MSTORE PUSH1 0x20 ADD PUSH0 DUP2 MSTORE POP SWAP1 JUMP JUMPDEST PUSH0 PUSH1 0x40 MLOAD SWAP1 POP SWAP1 JUMP JUMPDEST PUSH0 DUP1 REVERT JUMPDEST PUSH0 DUP1 REVERT JUMPDEST PUSH0 DUP2 SWAP1 POP SWAP2 SWAP1 POP JUMP JUMPDEST PUSH2 0x63E DUP2 PUSH2 0x62C JUMP JUMPDEST DUP2 EQ PUSH2 0x648 JUMPI PUSH0 DUP1 REVERT JUMPDEST POP JUMP JUMPDEST PUSH0 DUP2 CALLDATALOAD SWAP1 POP PUSH2 0x659 DUP2 PUSH2 0x635 JUMP JUMPDEST SWAP3 SWAP2 POP POP JUMP JUMPDEST PUSH0 PUSH1 0x20 DUP3 DUP5 SUB SLT ISZERO PUSH2 0x674 JUMPI PUSH2 0x673 PUSH2 0x624 JUMP JUMPDEST JUMPDEST PUSH0 PUSH2 0x681 DUP5 DUP3 DUP6 ADD PUSH2 0x64B JUMP JUMPDEST SWAP2 POP POP SWAP3 SWAP2 POP POP JUMP JUMPDEST PUSH2 0x693 DUP2 PUSH2 0x62C JUMP JUMPDEST DUP3 MSTORE POP POP JUMP JUMPDEST PUSH0 DUP2 MLOAD SWAP1 POP SWAP2 SWAP1 POP JUMP JUMPDEST PUSH0 DUP3 DUP3 MSTORE PUSH1 0x20 DUP3 ADD SWAP1 POP SWAP3 SWAP2 POP POP JUMP JUMPDEST PUSH0 JUMPDEST DUP4 DUP2 LT ISZERO PUSH2 0x6D0 JUMPI DUP1 DUP3 ADD MLOAD DUP2 DUP5 ADD MSTORE PUSH1 0x20 DUP2 ADD SWAP1 POP PUSH2 0x6B5 JUMP JUMPDEST PUSH0 DUP5 DUP5 ADD MSTORE POP POP POP POP JUMP JUMPDEST PUSH0 PUSH1 0x1F NOT PUSH1 0x1F DUP4 ADD AND SWAP1 POP SWAP2 SWAP1 POP JUMP JUMPDEST PUSH0 PUSH2 0x6F5 DUP3 PUSH2 0x699 JUMP JUMPDEST PUSH2 0x6FF DUP2 DUP6 PUSH2 0x6A3 JUMP JUMPDEST SWAP4 POP PUSH2 0x70F DUP2 DUP6 PUSH1 0x20 DUP7 ADD PUSH2 0x6B3 JUMP JUMPDEST PUSH2 0x718 DUP2 PUSH2 0x6DB JUMP JUMPDEST DUP5 ADD SWAP2 POP POP SWAP3 SWAP2 POP POP JUMP JUMPDEST PUSH0 PUSH1 0x60 DUP3 ADD SWAP1 POP PUSH2 0x736 PUSH0 DUP4 ADD DUP7 PUSH2 0x68A JUMP JUMPDEST DUP2 DUP2 SUB PUSH1 0x20 DUP4 ADD MSTORE PUSH2 0x748 DUP2 DUP6 PUSH2 0x6EB JUMP JUMPDEST SWAP1 POP PUSH2 0x757 PUSH1 0x40 DUP4 ADD DUP5 PUSH2 0x68A JUMP JUMPDEST SWAP5 SWAP4 POP POP POP POP JUMP JUMPDEST PUSH2 0x768 DUP2 PUSH2 0x62C JUMP JUMPDEST DUP3 MSTORE POP POP JUMP JUMPDEST PUSH0 DUP3 DUP3 MSTORE PUSH1 0x20 DUP3 ADD SWAP1 POP SWAP3 SWAP2 POP POP JUMP JUMPDEST PUSH0 PUSH2 0x788 DUP3 PUSH2 0x699 JUMP JUMPDEST PUSH2 0x792 DUP2 DUP6 PUSH2 0x76E JUMP JUMPDEST SWAP4 POP PUSH2 0x7A2 DUP2 DUP6 PUSH1 0x20 DUP7 ADD PUSH2 0x6B3 JUMP JUMPDEST PUSH2 0x7AB DUP2 PUSH2 0x6DB JUMP JUMPDEST DUP5 ADD SWAP2 POP POP SWAP3 SWAP2 POP POP JUMP JUMPDEST PUSH0 PUSH1 0x60 DUP4 ADD PUSH0 DUP4 ADD MLOAD PUSH2 0x7CB PUSH0 DUP7 ADD DUP3 PUSH2 0x75F JUMP JUMPDEST POP PUSH1 0x20 DUP4 ADD MLOAD DUP5 DUP3 SUB PUSH1 0x20 DUP7 ADD MSTORE PUSH2 0x7E3 DUP3 DUP3 PUSH2 0x77E JUMP JUMPDEST SWAP2 POP POP PUSH1 0x40 DUP4 ADD MLOAD PUSH2 0x7F8 PUSH1 0x40 DUP7 ADD DUP3 PUSH2 0x75F JUMP JUMPDEST POP DUP1 SWAP2 POP POP SWAP3 SWAP2 POP POP JUMP JUMPDEST PUSH0 PUSH1 0x20 DUP3 ADD SWAP1 POP DUP2 DUP2 SUB PUSH0 DUP4 ADD MSTORE PUSH2 0x81B DUP2 DUP5 PUSH2 0x7B6 JUMP JUMPDEST SWAP1 POP SWAP3 SWAP2 POP POP JUMP JUMPDEST PUSH0 PUSH1 0x20 DUP3 ADD SWAP1 POP PUSH2 0x836 PUSH0 DUP4 ADD DUP5 PUSH2 0x68A JUMP JUMPDEST SWAP3 SWAP2 POP POP JUMP JUMPDEST PUSH0 DUP1 REVERT JUMPDEST PUSH0 DUP1 REVERT JUMPDEST PUSH32 0x4E487B7100000000000000000000000000000000000000000000000000000000 PUSH0 MSTORE PUSH1 0x41 PUSH1 0x4 MSTORE PUSH1 0x24 PUSH0 REVERT JUMPDEST PUSH2 0x87A DUP3 PUSH2 0x6DB JUMP JUMPDEST DUP2 ADD DUP2 DUP2 LT PUSH8 0xFFFFFFFFFFFFFFFF DUP3 GT OR ISZERO PUSH2 0x899 JUMPI PUSH2 0x898 PUSH2 0x844 JUMP JUMPDEST JUMPDEST DUP1 PUSH1 0x40 MSTORE POP POP POP JUMP JUMPDEST PUSH0 PUSH2 0x8AB PUSH2 0x61B JUMP JUMPDEST SWAP1 POP PUSH2 0x8B7 DUP3 DUP3 PUSH2 0x871 JUMP JUMPDEST SWAP2 SWAP1 POP JUMP JUMPDEST PUSH0 PUSH8 0xFFFFFFFFFFFFFFFF DUP3 GT ISZERO PUSH2 0x8D6 JUMPI PUSH2 0x8D5 PUSH2 0x844 JUMP JUMPDEST JUMPDEST PUSH2 0x8DF DUP3 PUSH2 0x6DB JUMP JUMPDEST SWAP1 POP PUSH1 0x20 DUP2 ADD SWAP1 POP SWAP2 SWAP1 POP JUMP JUMPDEST DUP3 DUP2 DUP4 CALLDATACOPY PUSH0 DUP4 DUP4 ADD MSTORE POP POP POP JUMP JUMPDEST PUSH0 PUSH2 0x90C PUSH2 0x907 DUP5 PUSH2 0x8BC JUMP JUMPDEST PUSH2 0x8A2 JUMP JUMPDEST SWAP1 POP DUP3 DUP2 MSTORE PUSH1 0x20 DUP2 ADD DUP5 DUP5 DUP5 ADD GT ISZERO PUSH2 0x928 JUMPI PUSH2 0x927 PUSH2 0x840 JUMP JUMPDEST JUMPDEST PUSH2 0x933 DUP5 DUP3 DUP6 PUSH2 0x8EC JUMP JUMPDEST POP SWAP4 SWAP3 POP POP POP JUMP JUMPDEST PUSH0 DUP3 PUSH1 0x1F DUP4 ADD SLT PUSH2 0x94F JUMPI PUSH2 0x94E PUSH2 0x83C JUMP JUMPDEST JUMPDEST DUP2 CALLDATALOAD PUSH2 0x95F DUP5 DUP3 PUSH1 0x20 DUP7 ADD PUSH2 0x8FA JUMP JUMPDEST SWAP2 POP POP SWAP3 SWAP2 POP POP JUMP JUMPDEST PUSH0 PUSH1 0x20 DUP3 DUP5 SUB SLT ISZERO PUSH2 0x97D JUMPI PUSH2 0x97C PUSH2 0x624 JUMP JUMPDEST JUMPDEST PUSH0 DUP3 ADD CALLDATALOAD PUSH8 0xFFFFFFFFFFFFFFFF DUP2 GT ISZERO PUSH2 0x99A JUMPI PUSH2 0x999 PUSH2 0x628 JUMP JUMPDEST JUMPDEST PUSH2 0x9A6 DUP5 DUP3 DUP6 ADD PUSH2 0x93B JUMP JUMPDEST SWAP2 POP POP SWAP3 SWAP2 POP POP JUMP JUMPDEST PUSH0 PUSH20 0xFFFFFFFFFFFFFFFFFFFFFFFFFFFFFFFFFFFFFFFF DUP3 AND SWAP1 POP SWAP2 SWAP1 POP JUMP JUMPDEST PUSH0 PUSH2 0x9D8 DUP3 PUSH2 0x9AF JUMP JUMPDEST SWAP1 POP SWAP2 SWAP1 POP JUMP JUMPDEST PUSH2 0x9E8 DUP2 PUSH2 0x9CE JUMP JUMPDEST DUP3 MSTORE POP POP JUMP JUMPDEST PUSH0 PUSH1 0x20 DUP3 ADD SWAP1 POP PUSH2 0xA01 PUSH0 DUP4 ADD DUP5 PUSH2 0x9DF JUMP JUMPDEST SWAP3 SWAP2 POP POP JUMP JUMPDEST PUSH2 0xA10 DUP2 PUSH2 0x9CE JUMP JUMPDEST DUP2 EQ PUSH2 0xA1A JUMPI PUSH0 DUP1 REVERT JUMPDEST POP JUMP JUMPDEST PUSH0 DUP2 CALLDATALOAD SWAP1 POP PUSH2 0xA2B DUP2 PUSH2 0xA07 JUMP JUMPDEST SWAP3 SWAP2 POP POP JUMP JUMPDEST PUSH0 PUSH1 0x20 DUP3 DUP5 SUB SLT ISZERO PUSH2 0xA46 JUMPI PUSH2 0xA45 PUSH2 0x624 JUMP JUMPDEST JUMPDEST PUSH0 PUSH2 0xA53 DUP5 DUP3 DUP6 ADD PUSH2 0xA1D JUMP JUMPDEST SWAP2 POP POP SWAP3 SWAP2 POP POP JUMP JUMPDEST PUSH0 DUP2 ISZERO ISZERO SWAP1 POP SWAP2 SWAP1 POP JUMP JUMPDEST PUSH2 0xA70 DUP2 PUSH2 0xA5C JUMP JUMPDEST DUP3 MSTORE POP POP JUMP JUMPDEST PUSH0 PUSH1 0x20 DUP3 ADD SWAP1 POP PUSH2 0xA89 PUSH0 DUP4 ADD DUP5 PUSH2 0xA67 JUMP JUMPDEST SWAP3 SWAP2 POP POP JUMP JUMPDEST PUSH32 0x596F75206861766520616C726561647920766F7465642E000000000000000000 PUSH0 DUP3 ADD MSTORE POP JUMP JUMPDEST PUSH0 PUSH2 0xAC3 PUSH1 0x17 DUP4 PUSH2 0x6A3 JUMP JUMPDEST SWAP2 POP PUSH2 0xACE DUP3 PUSH2 0xA8F JUMP JUMPDEST PUSH1 0x20 DUP3 ADD SWAP1 POP SWAP2 SWAP1 POP JUMP JUMPDEST PUSH0 PUSH1 0x20 DUP3 ADD SWAP1 POP DUP2 DUP2 SUB PUSH0 DUP4 ADD MSTORE PUSH2 0xAF0 DUP2 PUSH2 0xAB7 JUMP JUMPDEST SWAP1 POP SWAP2 SWAP1 POP JUMP JUMPDEST PUSH32 0x4E6F7420612076616C69642063616E6469646174652049442E00000000000000 PUSH0 DUP3 ADD MSTORE POP JUMP JUMPDEST PUSH0 PUSH2 0xB2B PUSH1 0x19 DUP4 PUSH2 0x6A3 JUMP JUMPDEST SWAP2 POP PUSH2 0xB36 DUP3 PUSH2 0xAF7 JUMP JUMPDEST PUSH1 0x20 DUP3 ADD SWAP1 POP SWAP2 SWAP1 POP JUMP JUMPDEST PUSH0 PUSH1 0x20 DUP3 ADD SWAP1 POP DUP2 DUP2 SUB PUSH0 DUP4 ADD MSTORE PUSH2 0xB58 DUP2 PUSH2 0xB1F JUMP JUMPDEST SWAP1 POP SWAP2 SWAP1 POP JUMP JUMPDEST PUSH32 0x4E487B7100000000000000000000000000000000000000000000000000000000 PUSH0 MSTORE PUSH1 0x11 PUSH1 0x4 MSTORE PUSH1 0x24 PUSH0 REVERT JUMPDEST PUSH0 PUSH2 0xB96 DUP3 PUSH2 0x62C JUMP JUMPDEST SWAP2 POP PUSH2 0xBA1 DUP4 PUSH2 0x62C JUMP JUMPDEST SWAP3 POP DUP3 DUP3 ADD SWAP1 POP DUP1 DUP3 GT ISZERO PUSH2 0xBB9 JUMPI PUSH2 0xBB8 PUSH2 0xB5F JUMP JUMPDEST JUMPDEST SWAP3 SWAP2 POP POP JUMP JUMPDEST PUSH32 0x4E487B7100000000000000000000000000000000000000000000000000000000 PUSH0 MSTORE PUSH1 0x22 PUSH1 0x4 MSTORE PUSH1 0x24 PUSH0 REVERT JUMPDEST PUSH0 PUSH1 0x2 DUP3 DIV SWAP1 POP PUSH1 0x1 DUP3 AND DUP1 PUSH2 0xC03 JUMPI PUSH1 0x7F DUP3 AND SWAP2 POP JUMPDEST PUSH1 0x20 DUP3 LT DUP2 SUB PUSH2 0xC16 JUMPI PUSH2 0xC15 PUSH2 0xBBF JUMP JUMPDEST JUMPDEST POP SWAP2 SWAP1 POP JUMP JUMPDEST PUSH32 0x4F6E6C79206F776E65722063616E2063616C6C20746869732066756E6374696F PUSH0 DUP3 ADD MSTORE PUSH32 0x6E2E000000000000000000000000000000000000000000000000000000000000 PUSH1 0x20 DUP3 ADD MSTORE POP JUMP JUMPDEST PUSH0 PUSH2 0xC76 PUSH1 0x22 DUP4 PUSH2 0x6A3 JUMP JUMPDEST SWAP2 POP PUSH2 0xC81 DUP3 PUSH2 0xC1C JUMP JUMPDEST PUSH1 0x40 DUP3 ADD SWAP1 POP SWAP2 SWAP1 POP JUMP JUMPDEST PUSH0 PUSH1 0x20 DUP3 ADD SWAP1 POP DUP2 DUP2 SUB PUSH0 DUP4 ADD MSTORE PUSH2 0xCA3 DUP2 PUSH2 0xC6A JUMP JUMPDEST SWAP1 POP SWAP2 SWAP1 POP JUMP JUMPDEST PUSH0 DUP2 SWAP1 POP DUP2 PUSH0 MSTORE PUSH1 0x20 PUSH0 KECCAK256 SWAP1 POP SWAP2 SWAP1 POP JUMP JUMPDEST PUSH0 PUSH1 0x20 PUSH1 0x1F DUP4 ADD DIV SWAP1 POP SWAP2 SWAP1 POP JUMP JUMPDEST PUSH0 DUP3 DUP3 SHL SWAP1 POP SWAP3 SWAP2 POP POP JUMP JUMPDEST PUSH0 PUSH1 0x8 DUP4 MUL PUSH2 0xD06 PUSH32 0xFFFFFFFFFFFFFFFFFFFFFFFFFFFFFFFFFFFFFFFFFFFFFFFFFFFFFFFFFFFFFFFF DUP3 PUSH2 0xCCB JUMP JUMPDEST PUSH2 0xD10 DUP7 DUP4 PUSH2 0xCCB JUMP JUMPDEST SWAP6 POP DUP1 NOT DUP5 AND SWAP4 POP DUP1 DUP7 AND DUP5 OR SWAP3 POP POP POP SWAP4 SWAP3 POP POP POP JUMP JUMPDEST PUSH0 DUP2 SWAP1 POP SWAP2 SWAP1 POP JUMP JUMPDEST PUSH0 PUSH2 0xD4B PUSH2 0xD46 PUSH2 0xD41 DUP5 PUSH2 0x62C JUMP JUMPDEST PUSH2 0xD28 JUMP JUMPDEST PUSH2 0x62C JUMP JUMPDEST SWAP1 POP SWAP2 SWAP1 POP JUMP JUMPDEST PUSH0 DUP2 SWAP1 POP SWAP2 SWAP1 POP JUMP JUMPDEST PUSH2 0xD64 DUP4 PUSH2 0xD31 JUMP JUMPDEST PUSH2 0xD78 PUSH2 0xD70 DUP3 PUSH2 0xD52 JUMP JUMPDEST DUP5 DUP5 SLOAD PUSH2 0xCD7 JUMP JUMPDEST DUP3 SSTORE POP POP POP POP JUMP JUMPDEST PUSH0 SWAP1 JUMP JUMPDEST PUSH2 0xD8C PUSH2 0xD80 JUMP JUMPDEST PUSH2 0xD97 DUP2 DUP5 DUP5 PUSH2 0xD5B JUMP JUMPDEST POP POP POP JUMP JUMPDEST JUMPDEST DUP2 DUP2 LT ISZERO PUSH2 0xDBA JUMPI PUSH2 0xDAF PUSH0 DUP3 PUSH2 0xD84 JUMP JUMPDEST PUSH1 0x1 DUP2 ADD SWAP1 POP PUSH2 0xD9D JUMP JUMPDEST POP POP JUMP JUMPDEST PUSH1 0x1F DUP3 GT ISZERO PUSH2 0xDFF JUMPI PUSH2 0xDD0 DUP2 PUSH2 0xCAA JUMP JUMPDEST PUSH2 0xDD9 DUP5 PUSH2 0xCBC JUMP JUMPDEST DUP2 ADD PUSH1 0x20 DUP6 LT ISZERO PUSH2 0xDE8 JUMPI DUP2 SWAP1 POP JUMPDEST PUSH2 0xDFC PUSH2 0xDF4 DUP6 PUSH2 0xCBC JUMP JUMPDEST DUP4 ADD DUP3 PUSH2 0xD9C JUMP JUMPDEST POP POP JUMPDEST POP POP POP JUMP JUMPDEST PUSH0 DUP3 DUP3 SHR SWAP1 POP SWAP3 SWAP2 POP POP JUMP JUMPDEST PUSH0 PUSH2 0xE1F PUSH0 NOT DUP5 PUSH1 0x8 MUL PUSH2 0xE04 JUMP JUMPDEST NOT DUP1 DUP4 AND SWAP2 POP POP SWAP3 SWAP2 POP POP JUMP JUMPDEST PUSH0 PUSH2 0xE37 DUP4 DUP4 PUSH2 0xE10 JUMP JUMPDEST SWAP2 POP DUP3 PUSH1 0x2 MUL DUP3 OR SWAP1 POP SWAP3 SWAP2 POP POP JUMP JUMPDEST PUSH2 0xE50 DUP3 PUSH2 0x699 JUMP JUMPDEST PUSH8 0xFFFFFFFFFFFFFFFF DUP2 GT ISZERO PUSH2 0xE69 JUMPI PUSH2 0xE68 PUSH2 0x844 JUMP JUMPDEST JUMPDEST PUSH2 0xE73 DUP3 SLOAD PUSH2 0xBEC JUMP JUMPDEST PUSH2 0xE7E DUP3 DUP3 DUP6 PUSH2 0xDBE JUMP JUMPDEST PUSH0 PUSH1 0x20 SWAP1 POP PUSH1 0x1F DUP4 GT PUSH1 0x1 DUP2 EQ PUSH2 0xEAF JUMPI PUSH0 DUP5 ISZERO PUSH2 0xE9D JUMPI DUP3 DUP8 ADD MLOAD SWAP1 POP JUMPDEST PUSH2 0xEA7 DUP6 DUP3 PUSH2 0xE2C JUMP JUMPDEST DUP7 SSTORE POP PUSH2 0xF0E JUMP JUMPDEST PUSH1 0x1F NOT DUP5 AND PUSH2 0xEBD DUP7 PUSH2 0xCAA JUMP JUMPDEST PUSH0 JUMPDEST DUP3 DUP2 LT ISZERO PUSH2 0xEE4 JUMPI DUP5 DUP10 ADD MLOAD DUP3 SSTORE PUSH1 0x1 DUP3 ADD SWAP2 POP PUSH1 0x20 DUP6 ADD SWAP5 POP PUSH1 0x20 DUP2 ADD SWAP1 POP PUSH2 0xEBF JUMP JUMPDEST DUP7 DUP4 LT ISZERO PUSH2 0xF01 JUMPI DUP5 DUP10 ADD MLOAD PUSH2 0xEFD PUSH1 0x1F DUP10 AND DUP3 PUSH2 0xE10 JUMP JUMPDEST DUP4 SSTORE POP JUMPDEST PUSH1 0x1 PUSH1 0x2 DUP9 MUL ADD DUP9 SSTORE POP POP POP JUMPDEST POP POP POP POP POP POP JUMP INVALID LOG2 PUSH5 0x6970667358 0x22 SLT KECCAK256 0xF 0xE3 0xBA 0xB5 STATICCALL DUP7 0xEC 0xBE GASLIMIT 0xCD 0x2E 0xA7 LOG0 SWAP3 ADDMOD 0xB5 0xCD 0xEA MSIZE JUMPDEST LOG1 PUSH0 0xE5 TIMESTAMP 0xD 0xEF BLOCKHASH CODESIZE 0xE9 0xCC PUSH26 0x9964736F6C634300081800330000000000000000000000000000 "
				},
				"gasEstimates": {
					"creation": {
						"codeDepositCost": "783200",
						"executionCost": "25081",
						"totalCost": "808281"
					},
					"external": {
						"addCandidate(string)": "infinite",
						"candidates(uint256)": "infinite",
						"getCandidate(uint256)": "infinite",
						"owner()": "2549",
						"totalCandidates()": "2440",
						"vote(uint256)": "infinite",
						"voters(address)": "2899"
					}
				},
				"methodIdentifiers": {
					"addCandidate(string)": "462e91ec",
					"candidates(uint256)": "3477ee2e",
					"getCandidate(uint256)": "35b8e820",
					"owner()": "8da5cb5b",
					"totalCandidates()": "3866965c",
					"vote(uint256)": "0121b93f",
					"voters(address)": "a3ec138d"
				}
			},
			"storageLayout": {
				"storage": [
					{
						"astId": 10,
						"contract": "contracts/TP1BlockChain.sol:VotingSystem",
						"label": "owner",
						"offset": 0,
						"slot": "0",
						"type": "t_address"
					},
					{
						"astId": 15,
						"contract": "contracts/TP1BlockChain.sol:VotingSystem",
						"label": "candidates",
						"offset": 0,
						"slot": "1",
						"type": "t_mapping(t_uint256,t_struct(Candidate)8_storage)"
					},
					{
						"astId": 18,
						"contract": "contracts/TP1BlockChain.sol:VotingSystem",
						"label": "candidateIds",
						"offset": 0,
						"slot": "2",
						"type": "t_array(t_uint256)dyn_storage"
					},
					{
						"astId": 22,
						"contract": "contracts/TP1BlockChain.sol:VotingSystem",
						"label": "voters",
						"offset": 0,
						"slot": "3",
						"type": "t_mapping(t_address,t_bool)"
					}
				],
				"types": {
					"t_address": {
						"encoding": "inplace",
						"label": "address",
						"numberOfBytes": "20"
					},
					"t_array(t_uint256)dyn_storage": {
						"base": "t_uint256",
						"encoding": "dynamic_array",
						"label": "uint256[]",
						"numberOfBytes": "32"
					},
					"t_bool": {
						"encoding": "inplace",
						"label": "bool",
						"numberOfBytes": "1"
					},
					"t_mapping(t_address,t_bool)": {
						"encoding": "mapping",
						"key": "t_address",
						"label": "mapping(address => bool)",
						"numberOfBytes": "32",
						"value": "t_bool"
					},
					"t_mapping(t_uint256,t_struct(Candidate)8_storage)": {
						"encoding": "mapping",
						"key": "t_uint256",
						"label": "mapping(uint256 => struct VotingSystem.Candidate)",
						"numberOfBytes": "32",
						"value": "t_struct(Candidate)8_storage"
					},
					"t_string_storage": {
						"encoding": "bytes",
						"label": "string",
						"numberOfBytes": "32"
					},
					"t_struct(Candidate)8_storage": {
						"encoding": "inplace",
						"label": "struct VotingSystem.Candidate",
						"members": [
							{
								"astId": 3,
								"contract": "contracts/TP1BlockChain.sol:VotingSystem",
								"label": "id",
								"offset": 0,
								"slot": "0",
								"type": "t_uint256"
							},
							{
								"astId": 5,
								"contract": "contracts/TP1BlockChain.sol:VotingSystem",
								"label": "name",
								"offset": 0,
								"slot": "1",
								"type": "t_string_storage"
							},
							{
								"astId": 7,
								"contract": "contracts/TP1BlockChain.sol:VotingSystem",
								"label": "voteCount",
								"offset": 0,
								"slot": "2",
								"type": "t_uint256"
							}
						],
						"numberOfBytes": "96"
					},
					"t_uint256": {
						"encoding": "inplace",
						"label": "uint256",
						"numberOfBytes": "32"
					}
				}
			},
			"userdoc": {
				"kind": "user",
				"methods": {},
				"version": 1
			}
		}
	}
}